:020000040800F2
:1000000000280020D1010008210200082102000878
:10001000210200082102000821020008000000005F
:1000200000000000000000000000000021020008A5
:10003000210200080000000021020008210200083F
:100040002102000821020008210200082102000804
:1000500021020008210200082102000821020008F4
:1000600021020008210200082102000821020008E4
:1000700021020008210200082102000821020008D4
:1000800021020008210200082102000821020008C4
:1000900021020008210200082102000821020008B4
:1000A00021020008210200082102000821020008A4
:1000B0002102000821020008210200082102000894
:1000C0002102000821020008210200082102000884
:1000D0002102000821020008210200082102000874
:1000E000210200082102000800000000210200088F
:1000F0002102000821020008210200082102000854
:100100002102000821020008210200082102000843
:100110002102000821020008210200082102000833
:100120002102000821020008210200082102000823
:1001300010B5054C237833B9044B13B10448AFF321
:1001400000800123237010BD140000200000000077
:10015000FC08000808B5034B1BB103490348AFF383
:10016000008008BD0000000018000020FC08000806
:1001700080B582B000AF00F017F800F067F900F02A
:1001800051F800F09DF80346FB71FB794E2BF8D037
:10019000FB79232B02D100F0E3FAF2E7FB79184652
:1001A00000F02AFAEDE7000080B400AF074B9B692E
:1001B000064A43F004039361044B9B69034A43F0EE
:1001C0000803936100BFBD4680BC70470010024029
:1001D0000D488546AFF300800C480D490D4A0023B9
:1001E00002E0D458C4500433C4188C42F9D30A4AEC
:1001F0000A4C002301E013600432A242FBD300F05A
:1002000059FBFFF7B5FFFEE70028002000000020A3
:10021000140000201C0900081400002038000020F1
:10022000FEE7000080B500AF234B0C221A80224B62
:1002300008225A802049214800F0A4FA1E4B0D22C2
:100240001A801D4B08225A801B491C4800F09AFA5C
:10025000194B0E221A80184B08225A80164917484B
:1002600000F090FA144B0F221A80134B08225A8088
:100270001149124800F086FA0F4B0B221A800E4BE0
:1002800001225A800C490D4800F07CFA0A4B0922E1
:100290001A80094B01225A800749084800F072FA77
:1002A000054B08221A80044B01225A800249034858
:1002B00000F068FA00BF80BD34000020000C01404F
:1002C00080B582B000AF0023FB7143E001220B2117
:1002D000244800F0CAFA01220921224800F0C5FA98
:1002E000012208211F4800F0C0FAFB791E4AD35CA6
:1002F0009BB2002219461B4800F0B7FA0023BB71DD
:1003000022E0BB79194AD35C9BB21946154800F02C
:1003100090FA0346002B14D100BFBB79134AD35C7B
:100320009BB219460F4800F084FA0346002BF4D024
:10033000BA7913465B001A44FB7913440C4AD35C28
:100340000CE0BB790133BB71BB79032BD9D9FB79A5
:100350000133FB71FB79022BB8D94E2318460837BD
:10036000BD4680BD000C0140100000200C000020A4
:100370000000002080B485B000AF0346FB7100236D
:10038000FB7310E00023BB7304E0BB7BDBB20133E3
:10039000DBB2BB73BB7BDBB2632BF6D9FB7BDBB27F
:1003A0000133DBB2FB73FB7BDBB2FA799A42E9D80B
:1003B00000BF1437BD4680BC7047000080B500AF59
:1003C00001220521064800F050FA3220FFF7D2FF43
:1003D00000220521024800F048FA00BF80BD00BF9E
:1003E000000C014080B500AF164B1B780F2B13D9C2
:1003F000154B1B78022B0FD8124B00221A70124B90
:100400001B780133DAB2104B1A700F4B1B780021A6
:10041000184600F069F912E00A4B1B780F2B0ED931
:10042000094B1B78032B0AD100F09AF9802000F0C9
:1004300075F8044B00221A70034B00221A7000BF9B
:1004400080BD00BF300000203100002080B500AF2B
:100450001420FFF78FFF2E4B03221A802C4B012212
:100460005A802B492B4800F08DF9294B05221A8020
:10047000274B01225A802649264800F083F90022A2
:100480000521244800F0F1F900220321214800F061
:10049000ECF90F20FFF76EFF1D4B0A221A801C4B50
:1004A00001225A801A491C4800F06CF9184B0B22A3
:1004B0001A80174B01225A801549174800F062F93B
:1004C000134B0C221A80124B01225A8010491248F9
:1004D00000F058F90E4B0F221A800D4B01225A8062
:1004E0000B490D4800F04EF90520FFF743FF0220AD
:1004F00000F014F8282000F011F8062000F00EF8A3
:10050000802000F00BF80F2000F008F800BF80BD3D
:1005100034000020000C01400008014080B582B08A
:1005200000AF0346FB7100220321314800F09DF922
:10053000002205212E4800F098F9FB791B11DBB24F
:1005400003F00103DBB21A460A212A4800F08DF9B4
:10055000FB795B11DBB203F00103DBB21A460B211E
:10056000244800F082F9FB799B11DBB203F0010310
:10057000DBB21A460C211F4800F077F9FB79DB0942
:10058000DBB21A460F211B4800F06FF9FFF716FF88
:10059000FB7903F00103DBB21A460A21154800F08B
:1005A00064F9FB795B10DBB203F00103DBB21A469E
:1005B0000B21104800F059F9FB799B10DBB203F0D6
:1005C0000103DBB21A460C210A4800F04EF9FB7910
:1005D000DB10DBB203F00103DBB21A460F21054842
:1005E00000F043F9FFF7EAFE00BF0837BD4680BDC3
:1005F000000C01400008014080B582B000AF034606
:10060000FB71FFF7EFFE01220321344800F02DF9C2
:1006100000220521314800F028F9FB791B11DBB2DB
:1006200003F00103DBB21A460A212D4800F01DF940
:10063000FB795B11DBB203F00103DBB21A460B213D
:10064000274800F012F9FB799B11DBB203F001039C
:10065000DBB21A460C21224800F007F9FB79DB09CE
:10066000DBB21A460F211E4800F0FFF8FFF7A6FE86
:10067000FB7903F00103DBB21A460A21184800F0A7
:10068000F4F8FB795B10DBB203F00103DBB21A462E
:100690000B21134800F0E9F8FB799B10DBB203F063
:1006A0000103DBB21A460C210D4800F0DEF8FB799D
:1006B000DB10DBB203F00103DBB21A460F2108485E
:1006C00000F0D3F8FFF77AFE064B1B780133DAB25D
:1006D000044B1A7000BF0837BD4680BD000C0140B6
:1006E000000801403000002080B582B000AF034612
:1006F0000A46FB711346BB71BB790F2B2AD8FB79D5
:10070000032B29D801A252F823F000BF1D070008CF
:100710002B0700083907000847070008BB79803B12
:10072000DBB21846FFF7FAFE17E0BB79403BDBB2BD
:100730001846FFF7F3FE10E0BB79703BDBB21846BA
:10074000FFF7ECFE09E0BB79303BDBB21846FFF760
:10075000E5FE02E000BF00E000BF0837BD4680BDF7
:1007600080B500AF0120FFF7D9FE044B00221A70BC
:10077000034B00221A7000BF80BD00BF3000002074
:100780003100002080B485B000AF786039603B68EC
:100790001B88072B01D87B6801E07B680433FB6072
:1007A0003B681B88DBB203F00703DBB29B00FB72E4
:1007B000FB681B68FA7A0F2101FA02F2D2431A4051
:1007C000FB681A603B685B88102B14D1FB681B68C0
:1007D000FA7A082101FA02F21A43FB681A607B6870
:1007E000DB683A681288114601228A40D2431A40D7
:1007F0007B68DA6018E0FB681B683A68528811462B
:10080000FA7A01FA02F21A43FB681A603B685B88C5
:10081000082B09D17B68DB683A68128811460122EF
:100820008A401A437B68DA6000BF1437BD4680BC3B
:10083000704780B485B000AF78600B467B807B68E2
:100840009B687A88012101FA02F21A407B8822FA19
:1008500003F3002B14BF01230023DBB2FB73FB7BEC
:1008600018461437BD4680BC704780B483B000AFD3
:1008700078600B467B8013467B707B78012B09D117
:100880007B68DB687A88012101FA02F21A437B68EF
:10089000DA6009E07B68DB687A88012101FA02F2FC
:1008A000D2431A407B68DA6000BF0C37BD4680BC7B
:1008B0007047000070B500250C4E0D4CA41BA41011
:1008C000A54209D100F01AF800250A4E0A4CA41BD3
:1008D000A410A54205D170BD56F8253098470135C2
:1008E000EEE756F8253098470135F2E7140900087D
:1008F000140900081409000818090008F8B500BF19
:10090000F8BC08BC9E467047F8B500BFF8BC08BCF0
:040910009E46704748
:040914005501000881
:0409180031010008A1
:10091C0033323136353439383723302A0C0D0E0F3B
:04092C000B090800AB
:04000005080001D11D
:00000001FF
