:020000040800F2
:100000000028002095010008E5010008E50100082E
:10001000E5010008E5010008E50100080000000016
:10002000000000000000000000000000E5010008E2
:10003000E501000800000000E5010008E5010008F6
:10004000E5010008E5010008E5010008E5010008F8
:10005000E5010008E5010008E5010008E5010008E8
:10006000E5010008E5010008E5010008E5010008D8
:10007000E5010008E5010008E5010008E5010008C8
:10008000E5010008E5010008E5010008E5010008B8
:10009000E5010008E5010008E5010008E5010008A8
:1000A000E5010008E5010008E5010008E501000898
:1000B000E5010008E5010008E5010008E501000888
:1000C000E5010008E5010008E5010008E501000878
:1000D000E5010008E5010008E5010008E501000868
:1000E000E5010008E501000800000000E501000846
:1000F000E5010008E5010008E5010008E501000848
:10010000E5010008E5010008E5010008E501000837
:10011000E5010008E5010008E5010008E501000827
:10012000E5010008E5010008E5010008E501000817
:1001300010B5054C237833B9044B13B10448AFF321
:1001400000800123237010BD180000200000000073
:10015000580D000808B5034B1BB103490348AFF322
:10016000008008BD000000001C000020580D0008A1
:1001700010F8012B11F8013B012A28BF9A42F7D051
:10018000D01A704780B500AF00F02DF800F032F8BB
:10019000FCE700000D488546AFF300800C480D4990
:1001A0000D4A002302E0D458C4500433C4188C42D2
:1001B000F9D30A4A0A4C002301E013600432A24238
:1001C000FBD300F0A5FDFFF7DDFFFEE700280020D0
:1001D0000000002018000020100E00081800002069
:1001E00050000020FEE780B500AF00F021F800BF0E
:1001F00080BD000080B500AF024B1B68984700BF70
:1002000080BD00BF4800002080B400AF074B9B6951
:10021000064A43F004039361044B9B69034A43F08D
:100220000803936100BFBD4680BC704700100240C8
:1002300080B500AFFFF7E8FF00F016FB00F0E0F933
:10024000024B034A1A6000BF80BD00BF4800002077
:100250005502000880B500AF00F0B0FC0421012079
:1002600000F064FC074800F04DFC0421022000F07F
:100270005DFC054800F046FC044B054A1A6000BFCF
:1002800080BD00BF700D00087C0D000848000020F4
:100290009502000880B500AF00F0FAF903461A464F
:1002A000074B1A70064B1B782A2B03D1054B064AC5
:1002B0001A6002E0034B054A1A6000BF80BD00BF10
:1002C0003400002048000020D102000895020008F8
:1002D00080B500AF00F072FC0C4800F013FC002168
:1002E000012000F023FC0A4800F00CFC094B1B78AD
:1002F000012B06D90021032000F018FC064800F06D
:1003000001FC064B064A1A6000BF80BD880D00083C
:10031000900D0008140000209C0D000848000020EB
:100320002503000880B500AF1B4B1B780733DBB2F9
:100330001946002000F0FAFB00F0AAF903461A461D
:10034000164B1A70154B1B784E2B0FD0134B1B7886
:10035000184600F05FFB104B1B785A1CD1B20E4AB6
:1003600011701A460D4B19780D4B99540A4B1B7896
:10037000032B0CD9084B1B781A46094B00219954C2
:10038000054B00221A70074B074A1A6002E0054B22
:10039000064A1A6000BF80BD3500002034000020EE
:1003A0003800002048000020B103000825030008A1
:1003B00080B500AF1A4B1B780933DBB21946012018
:1003C00000F0B4FB00F064F903461A46154B1A70AE
:1003D000144B1B784E2B0DD02A2000F01BFB104B2A
:1003E0001B785A1CD1B20E4A11701A460D4B19785F
:1003F0000D4B99540A4B1B78032B0CD9084B1B78D7
:100400001A46094B00219954054B00221A70074BDC
:10041000074A1A6002E0054B064A1A6000BF80BD19
:10042000350000203400002040000020480000205B
:1004300039040008B103000880B582B000AF002382
:10044000FB710023BB7122E0BA7913469B00134471
:100450005B00214A134421491846FFF789FE0346F1
:10046000002B11D1BA7913469B0013445B001A4A42
:10047000134405331A491846FFF77AFE0346002B4A
:1004800002D10123FB7105E0BB790133BB71BB795C
:10049000012BD9D9FB79012B06D1124B01221A70FD
:1004A000114B124A1A6013E00E4B1B78022B09D82D
:1004B0000C4B1B780133DAB20A4B1A700A4B0C4A08
:1004C0001A6005E0074B01221A70074B094A1A60AF
:1004D00000BF0837BD4680BD000000203800002066
:1004E000400000201400002048000020F90400080B
:1004F000D10200085502000880B500AF00F05EFB95
:100500000E4800F0FFFA0021012000F00FFB0C481C
:1005100000F0F8FA0021022000F008FB094800F082
:10052000F1FA0021032000F001FB074800F0EAFA8D
:10053000064B074A1A6000BF80BD00BFB00D00081F
:10054000C00D0008D00D0008E40D00084800002090
:100550005505000880B500AF00F09AF803461A462A
:10056000184B1A70174B1B782A3B092B26D801A26F
:1005700052F823F0B5050008BD050008BD050008C8
:10058000BD050008BD050008BD050008BD05000843
:100590009D050008A5050008AD0500080A4B0B4A9B
:1005A0001A600CE0084B0A4A1A6008E0064B094A38
:1005B0001A6004E0044B084A1A6000E000BF00BF64
:1005C00080BD00BF3400002048000020DD05000889
:1005D000E9050008F50500085502000880B400AFE1
:1005E00000BFBD4680BC704780B400AF00BFBD46B1
:1005F00080BC704780B400AF00BFBD4680BC704770
:1006000080B582B000AF0C23BB800823FB803B1D6C
:1006100019461E4800F0E4FA0D23BB800823FB8036
:100620003B1D1946194800F0DBFA0E23BB80082356
:10063000FB803B1D1946154800F0D2FA0F23BB8002
:100640000823FB803B1D1946104800F0C9FA0B2314
:10065000BB800123FB803B1D19460C4800F0C0FA0B
:100660000923BB800123FB803B1D1946074800F08E
:10067000B7FA0823BB800123FB803B1D19460348C2
:1006800000F0AEFA00BF0837BD4680BD000C014047
:1006900080B586B000AF3A4A07F1080307CA83E87D
:1006A0000700384B1B687B60374A3B46126811468F
:1006B00019800233120C1A704E237B750023FB75D0
:1006C00053E001220B21314800F0FDFA01220921FB
:1006D0002E4800F0F8FA012208212C4800F0F3FA25
:1006E000FB7D07F11802134413F8183C9BB200225B
:1006F0001946264800F0E7FA0023BB752CE0BB7DC5
:1007000007F11802134413F8143C9BB219461F4812
:1007100000F0BDFA0346002B1BD100BFBB7D07F1E3
:100720001802134413F8143C9BB21946174800F002
:10073000AEFA0346002BF1D0BA7D13465B001A4493
:10074000FB7D134407F11802134413F8103C7B752A
:1007500005E0BB7D0133BB75BB7D032BCFD97B7D12
:100760004E2B06D1FB7D0133FB75FB7D022BA8D9F7
:1007700000E000BF7B7D18461837BD4680BD00BF36
:10078000F40D0008000E0008040E0008000C0140E3
:1007900080B485B000AF0346FB710023FB7310E00B
:1007A0000023BB7304E0BB7BDBB20133DBB2BB7362
:1007B000BB7BDBB2632BF6D9FB7BDBB20133DBB255
:1007C000FB73FB7BDBB2FA799A42E9D800BF14379E
:1007D000BD4680BC7047000080B500AF01220521F6
:1007E000064800F070FA3220FFF7D2FF0022052100
:1007F000024800F068FA00BF80BD00BF000C014055
:1008000080B500AF164B1B780F2B13D9154B1B78F7
:10081000022B0FD8124B00221A70124B1B78013397
:10082000DAB2104B1A700F4B1B780021184600F0FB
:100830007DF912E00A4B1B780F2B0ED9094B1B7860
:10084000032B0AD100F0BAF9802000F075F8044BB0
:1008500000221A70034B00221A7000BF80BD00BF37
:10086000450000204600002080B500AF1420FFF7AF
:100870008FFF2E4B04221A802C4B01225A802B49C9
:100880002B4800F0ADF9294B05221A80274B012295
:100890005A802649264800F0A3F900220521244861
:1008A00000F011FA00220421214800F00CFA0F2078
:1008B000FFF76EFF1D4B0A221A801C4B01225A8043
:1008C0001A491C4800F08CF9184B0B221A80174B60
:1008D00001225A801549174800F082F9134B0C2267
:1008E0001A80124B01225A801049124800F078F900
:1008F0000E4B0F221A800D4B01225A800B490D48D6
:1009000000F06EF90520FFF743FF022000F014F815
:10091000282000F011F8062000F00EF8802000F0EA
:100920000BF80F2000F008F800BF80BD4C0000203D
:10093000000C01400008014080B582B000AF0346C2
:10094000FB7100220421314800F0BDF9002205218D
:100950002E4800F0B8F9FB791B11DBB203F001035C
:10096000DBB21A460A212A4800F0ADF9FB795B1187
:10097000DBB203F00103DBB21A460B21244800F07E
:10098000A2F9FB799B11DBB203F00103DBB21A463B
:100990000C211F4800F097F9FB79DB09DBB21A46FE
:1009A0000F211B4800F08FF9FFF716FFFB7903F0CA
:1009B0000103DBB21A460A21154800F084F9FB79DD
:1009C0005B10DBB203F00103DBB21A460B211048C7
:1009D00000F079F9FB799B10DBB203F00103DBB285
:1009E0001A460C210A4800F06EF9FB79DB10DBB2E5
:1009F00003F00103DBB21A460F21054800F063F94A
:100A0000FFF7EAFE00BF0837BD4680BD000C01407D
:100A10000008014080B582B000AF0346FB71FFF7CC
:100A2000EFFE01220421344800F04DF90022052197
:100A3000314800F048F9FB791B11DBB203F00103E8
:100A4000DBB21A460A212D4800F03DF9FB795B1113
:100A5000DBB203F00103DBB21A460B21274800F09A
:100A600032F9FB799B11DBB203F00103DBB21A46CA
:100A70000C21224800F027F9FB79DB09DBB21A468A
:100A80000F211E4800F01FF9FFF7A6FEFB7903F0C7
:100A90000103DBB21A460A21184800F014F9FB7969
:100AA0005B10DBB203F00103DBB21A460B211348E3
:100AB00000F009F9FB799B10DBB203F00103DBB214
:100AC0001A460C210D4800F0FEF8FB79DB10DBB272
:100AD00003F00103DBB21A460F21084800F0F3F8D7
:100AE000FFF77AFE064B1B780133DAB2044B1A701B
:100AF00000BF0837BD4680BD000C01400008014022
:100B00004500002080B582B000AF786006E07B68C9
:100B10005A1C7A601B781846FFF77CFF7B681B78AD
:100B2000002BF4D100BF0837BD4680BD80B582B030
:100B300000AF03460A46FB711346BB71BB790F2B0E
:100B400033D8FB79032B30D8FB79032B26D801A2AD
:100B500052F823F0650B0008730B0008810B0008A6
:100B60008F0B0008BB79803BDBB21846FFF7E4FE31
:100B700015E0BB79403BDBB21846FFF7DDFE0EE027
:100B8000BB79703BDBB21846FFF7D6FE07E0BB79B6
:100B9000303BDBB21846FFF7CFFE00E000BF054A4E
:100BA000FB791370044ABB79137000BF0837BD4648
:100BB00080BD00BF460000204500002080B500AF8A
:100BC0000120FFF7B9FE044B00221A70034B0022EC
:100BD0001A7000BF80BD00BF450000204600002005
:100BE00080B485B000AF786039603B681B88072B04
:100BF00001D87B6801E07B680433FB603B681B889D
:100C0000DBB203F00703DBB29B00FB72FB681B68DF
:100C1000FA7A0F2101FA02F2D2431A40FB681A60F5
:100C20003B685B88102B14D1FB681B68FA7A08219B
:100C300001FA02F21A43FB681A607B68DB683A68C3
:100C40001288114601228A40D2431A407B68DA603A
:100C500018E0FB681B683A6852881146FA7A01FA74
:100C600002F21A43FB681A603B685B88082B09D1C3
:100C70007B68DB683A681288114601228A401A4371
:100C80007B68DA6000BF1437BD4680BC704780B413
:100C900085B000AF78600B467B807B689B687A8864
:100CA000012101FA02F21A407B8822FA03F3002B99
:100CB00014BF01230023DBB2FB73FB7B1846143700
:100CC000BD4680BC704780B483B000AF78600B46EF
:100CD0007B8013467B707B78012B09D17B68DB68B6
:100CE0007A88012101FA02F21A437B68DA6009E08E
:100CF0007B68DB687A88012101FA02F2D2431A404C
:100D00007B68DA6000BF0C37BD4680BC70470000CE
:100D100070B500250C4E0D4CA41BA410A54209D1A2
:100D200000F01AF800250A4E0A4CA41BA410A54294
:100D300005D170BD56F8253098470135EEE756F8D5
:100D4000253098470135F2E7080E0008080E000824
:100D5000080E00080C0E0008F8B500BFF8BC08BC6F
:100D60009E467047F8B500BFF8BC08BC9E46704769
:100D7000507265737320272A27000000746F204C7F
:100D80006F67696E000000005573657249443A0050
:100D900050617373776F72643A00000057726F6E20
:100DA00067204C6F67696E20496E666F0000000017
:100DB000312E416464206E657720494400000000B4
:100DC000322E52656D6F766520616E2049440000B9
:100DD000332E53617665206F6E20454550524F4D3E
:100DE00000000000272A2720746F206C6F676F7542
:100DF000743A200033323136353439383723302ACB
:080E00000C0D0E0F0B09080098
:040E08005501000888
:040E0C0031010008A8
:100E10003132333400303030300031343832003643
:080E2000363636000100000027
:040000050800019559
:00000001FF
