:020000040800F2
:100000000028002095010008E5010008E50100082E
:10001000E5010008E5010008E50100080000000016
:10002000000000000000000000000000E5010008E2
:10003000E501000800000000E50100081D2100089E
:10004000E5010008E5010008E5010008E5010008F8
:10005000E5010008E5010008211600084516000822
:10006000691600088D160008B1160008E5010008A1
:10007000E5010008E5010008E5010008E5010008C8
:10008000E5010008E5010008E5010008E5010008B8
:10009000E5010008E5010008E5010008D5160008A3
:1000A000E5010008E5010008E5010008E501000898
:1000B000E5010008E5010008E5010008E501000888
:1000C000E5010008E5010008E5010008E11E00085F
:1000D000591F0008E5010008E5010008E5010008D6
:1000E00085170008E501000800000000E501000890
:1000F000E5010008E5010008E5010008E501000848
:10010000E5010008E5010008E5010008E501000837
:10011000E5010008E5010008E5010008E501000827
:10012000E5010008E5010008E5010008E501000817
:1001300010B5054C237833B9044B13B10448AFF321
:1001400000800123237010BD180000200000000073
:10015000B021000808B5034B1BB103490348AFF3B6
:10016000008008BD000000001C000020B021000835
:1001700010F8012B11F8013B012A28BF9A42F7D051
:10018000D01A704780B500AF00F02DF800F034F8B9
:10019000FCE700000D488546AFF300800C480D4990
:1001A0000D4A002302E0D458C4500433C4188C42D2
:1001B000F9D30A4A0A4C002301E013600432A24238
:1001C000FBD301F0C9FFFFF7DDFFFEE700280020A9
:1001D000000000201800002028230008180000203C
:1001E00018010020FEE780B500AF00F0CFF900F065
:1001F0006FFD00BF80BD000080B500AF034B1B68E2
:100200009847034B1B68984700BF80BDD000002073
:10021000CC00002080B400AF0A4B9B69094A43F030
:1002200004039361074B9B69064A43F008039361FB
:10023000044B9B69034A43F00103936100BFBD4631
:1002400080BC70470010024080B500AF00F0CCFDCC
:1002500003461A46054B1A70044B1B782A2B02D111
:10026000034B044A1A6000BF80BD00BF3400002069
:10027000D0000020B108000880B500AF01F04AF8B6
:100280000C4B1B78042B06D80B4800F0E7FF0B4BF8
:100290000B4A1A600CE00B4800F0E0FF002103203D
:1002A00000F0F0FF084800F0D9FF044B074A1A603D
:1002B00000BF80BD60000020C8210008D0000020E1
:1002C000A5090008D4210008E82100084902000817
:1002D00080B500AF0F4B1B789B000F4A13440F49AA
:1002E000184601F05DFF0B4B1B780133DAB2094B66
:1002F0001A7001F00FF80A4800F0B0FF0021032047
:1003000000F0C0FF074800F0A9FF074B074A1A603A
:1003100000BF80BD600000204C000020480000208D
:10032000FC210008E8210008D00000204902000854
:1003300080B500AF00F0EEFF074800F08FFF00210E
:10034000032000F09FFF054800F088FF044B054A9A
:100350001A6000BF80BD00BF14220008E821000819
:10036000D00000204902000880B500AF00F0D2FFA5
:10037000074800F073FF0021032000F083FF0548C9
:1003800000F06CFF044B054A1A6000BF80BD00BF3F
:1003900028220008E8210008D000002049020008B7
:1003A00080B500AF00F0B6FF074800F057FF00210E
:1003B000032000F067FF054800F050FF044B054A9A
:1003C0001A6000BF80BD00BF34220008E821000889
:1003D000D00000204902000880B582B000AF03467B
:1003E000FB71FA790D4B1B78013B9A420CDAFB79D1
:1003F0009B000B4A9818094B1B78013B9B00084A4D
:100400001344194601F0CCFE044B1B78013BDAB2D1
:10041000024B1A7000BF0837BD4680BD6000002047
:100420004C00002080B582B000AF0023FB71274B49
:100430001B789B00264A134419462648FFF798FE6E
:100440000346002B01D10123FB71FB79002B17D050
:10045000214B1B78312B03D1204B214A1A600BE032
:100460001D4B1B78322B07D1184B1B781846FFF712
:10047000B3FF1A4B1B4A1A60144B00221A7021E07A
:10048000124B1B780133DAB2104B1A700F4B1A78EB
:10049000154B1B789A4203D2104B144A1A6011E094
:1004A0000A4B00221A700C4B1B78312B03D10B4BDB
:1004B0000F4A1A6006E0084B1B78322B02D1074B1B
:1004C0000C4A1A6000BF0837BD4680BD610000209D
:1004D0004C0000204800002045000020D0000020F3
:1004E00031030008690300086000002025040008AB
:1004F000D1020008A103000880B500AF00F00AFF98
:100500000C4B1B78002B06D00B4800F0A7FE0B4BC2
:100510000B4A1A600CE00B4800F0A0FE00210320FB
:1005200000F0B0FE084800F099FE044B074A1A603C
:1005300000BF80BD60000020C8210008D00000205E
:100540004D0A000848220008E82100084902000876
:1005500080B500AF0A4B1B78042B08D1084B002252
:100560001A7001F083FD074B074A1A6005E0044B3F
:100570001B780133DAB2024B1A7000BF80BD00BF96
:1005800062000020D0000020B105000880B500AF57
:10059000FFF740FE00F014FD00F0DEFB024B034AC3
:1005A0001A6000BF80BD00BFD0000020B105000868
:1005B00080B500AF00F0AEFE0421012000F062FE25
:1005C000074800F04BFE0421022000F05BFE0548C6
:1005D00000F044FE044B054A1A6000BF80BD00BF16
:1005E0005822000864220008D0000020F10500080D
:1005F00080B500AF00F0F8FB03461A46074B1A70AF
:10060000064B1B782A2B03D1054B064A1A6002E0E1
:10061000034B054A1A6000BF80BD00BF34000020B4
:10062000D00000202D060008F105000880B500AFBD
:1006300000F070FE0C4800F011FE0021012000F0D7
:1006400021FE0A4800F00AFE094B1B78012B06D94F
:100650000021032000F016FE064800F0FFFD064BC7
:10066000064A1A6000BF80BD702200087822000888
:100670001400002084220008D00000208106000819
:1006800080B500AF1B4B1B780733DBB21946002047
:1006900000F0F8FD00F0A8FB03461A46164B1A704E
:1006A000154B1B784E2B0FD0134B1B78184600F0C0
:1006B0005DFD104B1B785A1CD1B20E4A11701A46C0
:1006C0000D4B19780D4B99540A4B1B78032B0CD901
:1006D000084B1B781A46094B00219954054B002200
:1006E0001A70074B074A1A6002E0054B064A1A6067
:1006F00000BF80BD350000203400002038000020FD
:10070000D00000200D0700088106000880B500AF6A
:100710001A4B1B780933DBB21946012000F0B2FDF9
:1007200000F062FB03461A46154B1A70144B1B78F7
:100730004E2B0DD02A2000F019FD104B1B785A1CAF
:10074000D1B20E4A11701A460D4B19780D4B9954BF
:100750000A4B1B78032B0CD9084B1B781A46094B04
:1007600000219954054B00221A70074B074A1A6062
:1007700002E0054B064A1A6000BF80BD350000202C
:100780003400002040000020D00000209507000821
:100790000D07000880B582B000AF0023FB71002375
:1007A000BB7122E0BA7913469B0013445B00214AD7
:1007B000134421491846FFF7DBFC0346002B11D1F7
:1007C000BA7913469B0013445B001A4A134405335D
:1007D0001A491846FFF7CCFC0346002B02D101232F
:1007E000FB7105E0BB790133BB71BB79012BD9D912
:1007F000FB79012B06D1124B01221A70114B124AC0
:100800001A6013E00E4B1B78022B09D80C4B1B7897
:100810000133DAB20A4B1A700A4B0C4A1A6005E02F
:10082000074B01221A70074B094A1A6000BF0837AC
:10083000BD4680BD000000203800002040000020A0
:1008400014000020D0000020B10800082D06000888
:100850005508000880B500AF00F05CFD02210120C2
:1008600000F010FD094800F0F9FC0321022000F01F
:1008700009FD074800F0F2FC0649074801F004FCB6
:10088000064B074A1A6000BF80BD00BF98220008CF
:10089000A82200085105000880841E00D000002016
:1008A000A508000880B400AF00BFBD4680BC7047FB
:1008B00080B500AF00F02EFD0E4800F0CFFC002107
:1008C000012000F0DFFC0C4800F0C8FC00210220F1
:1008D00000F0D8FC094800F0C1FC0021032000F022
:1008E000D1FC074800F0BAFC064B074A1A6000BF6B
:1008F00080BD00BFB4220008C4220008D422000832
:10090000E4220008D00000200D09000880B500AFE7
:1009100000F06AFA03461A461B4B1A701A4B1B78F2
:100920002A3B092B28D801A252F823F071090008AC
:10093000790900087909000879090008790900088F
:100940007909000879090008550900085D090008BF
:10095000650900080D4B0E4A1A600EE00B4B0D4A5C
:100960001A600AE000F0D6FC084B0B4A1A6004E05B
:10097000064B0A4A1A6000E000BF034B1A78084B86
:100980001A7000BF80BD00BF34000020D0000020DE
:1009900079020008F9040008DD0A0008B105000822
:1009A0004500002080B500AF204B1B780933DBB237
:1009B0001946002000F066FC00F016FA03461A46BD
:1009C0001B4B1A701A4B1B784E2B11D0184B1B78EF
:1009D000184600F0CBFB154B1B781A46144B1978C0
:1009E000144B9954114B1B780133DAB20F4B1A7028
:1009F0000E4B1B78022B14D90C4B1B781A460D4B4F
:100A000000219954094B00221A700B4B1B78002BC4
:100A100003D10A4B0A4A1A6006E0084B094A1A60D9
:100A200002E0064B084A1A6000BF80BD3500002076
:100A3000340000204800002060000020D00000208A
:100A4000D102000825040008A509000880B500AF00
:100A50001C4B1B780933DBB21946002000F012FC56
:100A600000F0C2F903461A46174B1A70164B1B7852
:100A70004E2B11D0144B1B78184600F077FB114B0E
:100A80001B781A46104B1978104B99540D4B1B7854
:100A90000133DAB20B4B1A700A4B1B78022B0CD9BC
:100AA000084B1B781A46094B00219954054B00222C
:100AB0001A70074B074A1A6002E0054B064A1A6093
:100AC00000BF80BD35000020340000204800002019
:100AD000D000002025040008A509000880B500AF5B
:100AE000184B1B78002B11D0174B1B789B00174A13
:100AF0001344184600F0B2FB2C2000F037FB124BD9
:100B00001B780133DAB2104B1A7002E0104800F083
:100B1000A5FB0D4B1A780B4B1B789A420DD30A4B51
:100B200000221A700021032000F0ACFB094800F0FD
:100B300095FB094B094A1A6002E0074B084A1A6004
:100B400000BF80BD60000020630000204C0000203A
:100B5000F4220008E8210008D00000204902000823
:100B6000DD0A000880B582B000AF1E4B1B78002B59
:100B700005D101221C491D4801F03EF90AE0194B3C
:100B80001B78013B184A13440133012219461748C8
:100B900001F032F9134B1B780133DAB2114B1A70A2
:100BA000104B1B78042B10D10E4B1B78013B0E4AC7
:100BB000134400225A700B4B00221A700A4B93E820
:100BC00006000B4800F0D8FB07E07B6800221A8083
:100BD00001227968054801F0D7F800BF0837BD4603
:100BE00080BD00BF8900002084000020003001404B
:100BF0007000002080B582B000AF7B684FF6FF72B6
:100C00001A8001227968034801F0BEF800BF083756
:100C1000BD4680BD0030014080B586B000AF0423E2
:100C2000BB800023FB8000233B8180237B81022348
:100C3000BB810123FB814FF440733B8210237B82F5
:100C40003B1D19460B4801F029F87B6900221A80E8
:100C500000227969074801F097F8074A8021054882
:100C600001F00CF90521232000F0CAFE00BF18375F
:100C7000BD4680BD00300140650B000880B586B0E0
:100C800000AF0A4A3B1D07CA83E8070002233B74F2
:100C900001237B740A23BB74054B7B613B1D184603
:100CA00000F028FC00BF1837BD4680BD00230008B7
:100CB000F50B000880B500AF02220349034800F09D
:100CC0003BFB00BF80BD00BF64000020700000201F
:100CD00080B500AFFFF7A0FFFFF7D0FFFFF7EAFFF7
:100CE000024B034A1A6000BF80BD00BFCC00002049
:100CF000F50C000880B582B000AF164B1B69022BC3
:100D000023D10021002000F0BDFA3B4619461148CE
:100D100000F07CFB3B78184600F028FA3B46013394
:100D2000184600F09BFA0021012000F0ABFA3B4688
:100D30001946084800F06AFB3B460133184600F0AC
:100D40008DFA3B78184600F011FA00BF0837BD460F
:100D500080BD00BF7000002080B582B000AF0C23C2
:100D6000BB800823FB803B1D19461E4800F072FD26
:100D70000D23BB800823FB803B1D1946194800F05A
:100D800069FD0E23BB800823FB803B1D19461548D7
:100D900000F060FD0F23BB800823FB803B1D19463C
:100DA000104800F057FD0B23BB800123FB803B1D47
:100DB00019460C4800F04EFD0923BB800123FB803F
:100DC0003B1D1946074800F045FD0823BB80012361
:100DD000FB803B1D1946034800F03CFD00BF08376F
:100DE000BD4680BD000C014080B586B000AF3A4AD8
:100DF00007F1080307CA83E80700384B1B687B60CC
:100E0000374A3B461268114619800233120C1A7099
:100E10004E237B750023FB7553E001220B213148E3
:100E200000F08BFD012209212E4800F086FD0122F1
:100E300008212C4800F081FDFB7D07F118021344C6
:100E400013F8183C9BB200221946264800F075FDA5
:100E50000023BB752CE0BB7D07F11802134413F887
:100E6000143C9BB219461F4800F04BFD0346002B73
:100E70001BD100BFBB7D07F11802134413F8143CCB
:100E80009BB21946174800F03CFD0346002BF1D0F9
:100E9000BA7D13465B001A44FB7D134407F1180228
:100EA000134413F8103C7B7505E0BB7D0133BB7523
:100EB000BB7D032BCFD97B7D4E2B06D1FB7D013330
:100EC000FB75FB7D022BA8D900E000BF7B7D184697
:100ED0001837BD4680BD00BF0C230008182300084A
:100EE0001C230008000C014080B485B000AF03460D
:100EF000FB710023FB7310E00023BB7304E0BB7B9A
:100F0000DBB20133DBB2BB73BB7BDBB2632BF6D945
:100F1000FB7BDBB20133DBB2FB73FB7BDBB2FA7929
:100F20009A42E9D800BF1437BD4680BC7047000024
:100F300080B500AF01220521064800F0FEFC3220FA
:100F4000FFF7D2FF00220521024800F0F6FC00BFA7
:100F500080BD00BF000C014080B500AF164B1B7870
:100F60000F2B13D9154B1B78022B0FD8124B0022D5
:100F70001A70124B1B780133DAB2104B1A700F4BF8
:100F80001B780021184600F07DF912E00A4B1B780F
:100F90000F2B0ED9094B1B78032B0AD100F0BAF99D
:100FA000802000F075F8044B00221A70034B0022D9
:100FB0001A7000BF80BD00BF8A0000208B00002097
:100FC00080B500AF1420FFF78FFF2E4B04221A804C
:100FD0002C4B01225A802B492B4800F03BFC294B1B
:100FE00005221A80274B01225A802649264800F004
:100FF00031FC00220521244800F09FFC002204213E
:10100000214800F09AFC0F20FFF76EFF1D4B0A22CB
:101010001A801C4B01225A801A491C4800F01AFC05
:10102000184B0B221A80174B01225A80154917487A
:1010300000F010FC134B0C221A80124B01225A8034
:101040001049124800F006FC0E4B0F221A800D4B7F
:1010500001225A800B490D4800F0FCFB0520FFF7E8
:1010600043FF022000F014F8282000F011F80620B9
:1010700000F00EF8802000F00BF80F2000F008F8C8
:1010800000BF80BDD4000020000C014000080140DA
:1010900080B582B000AF0346FB71002204213148C5
:1010A00000F04BFC002205212E4800F046FCFB79A5
:1010B0001B11DBB203F00103DBB21A460A212A48F6
:1010C00000F03BFCFB795B11DBB203F00103DBB208
:1010D0001A460B21244800F030FCFB799B11DBB24F
:1010E00003F00103DBB21A460C211F4800F025FC77
:1010F000FB79DB09DBB21A460F211B4800F01DFC0F
:10110000FFF716FFFB7903F00103DBB21A460A2151
:10111000154800F012FCFB795B10DBB203F0010311
:10112000DBB21A460B21104800F007FCFB799B103C
:10113000DBB203F00103DBB21A460C210A4800F0CF
:10114000FCFBFB79DB10DBB203F00103DBB21A46D8
:101150000F21054800F0F1FBFFF7EAFE00BF08375A
:10116000BD4680BD000C01400008014080B582B042
:1011700000AF0346FB71FFF7EFFE01220421344864
:1011800000F0DBFB00220521314800F0D6FBFB79A3
:101190001B11DBB203F00103DBB21A460A212D4812
:1011A00000F0CBFBFB795B11DBB203F00103DBB298
:1011B0001A460B21274800F0C0FBFB799B11DBB2DC
:1011C00003F00103DBB21A460C21224800F0B5FB04
:1011D000FB79DB09DBB21A460F211E4800F0ADFB9C
:1011E000FFF7A6FEFB7903F00103DBB21A460A21E2
:1011F000184800F0A2FBFB795B10DBB203F001039F
:10120000DBB21A460B21134800F097FBFB799B10C9
:10121000DBB203F00103DBB21A460C210D4800F0EB
:101220008CFBFB79DB10DBB203F00103DBB21A4667
:101230000F21084800F081FBFFF77AFE064B1B7870
:101240000133DAB2044B1A7000BF0837BD4680BDC7
:10125000000C0140000801408A00002080B582B0E7
:1012600000AF786006E07B685A1C7A601B781846ED
:10127000FFF77CFF7B681B78002BF4D100BF083799
:10128000BD4680BD80B582B000AF03460A46FB7103
:101290001346BB71BB790F2B33D8FB79032B30D8A6
:1012A000FB79032B26D801A252F823F0BD120008C7
:1012B000CB120008D9120008E7120008BB79803B66
:1012C000DBB21846FFF7E4FE15E0BB79403BDBB22A
:1012D0001846FFF7DDFE0EE0BB79703BDBB2184627
:1012E000FFF7D6FE07E0BB79303BDBB21846FFF7CD
:1012F000CFFE00E000BF054AFB791370044ABB79BA
:10130000137000BF0837BD4680BD00BF8B000020B2
:101310008A00002080B500AF0120FFF7B9FE044B22
:1013200000221A70034B00221A7000BF80BD00BF5C
:101330008A0000208B00002080B485B000AFF860E8
:10134000B9607A60BB68002B01D103230FE0FB6812
:10135000BA681A60FB68BA685A60FB68BA689A6033
:10136000FB687A68DA60FB6800221A61022318467B
:101370001437BD4680BC704780B485B000AFF860BC
:101380003B1D83E80600FB68002B0BD0FB685B6805
:10139000002B07D0FB681B68002B03D0FB689B6801
:1013A000002B01D103232CE0FB681A69FB68DB6882
:1013B0009A4201D3002324E0FB685B681A463B1D78
:1013C000186810601B791371FB685968FB6818680E
:1013D000FB68DA6813469B001344053B03449942BB
:1013E00004D1FB681A68FB685A6004E0FB685B681C
:1013F0005A1DFB685A60FB681B695A1CFB681A611E
:10140000022318461437BD4680BC704780B483B0B1
:1014100000AF786039607B68002B0BD07B685B681D
:10142000002B07D07B681B68002B03D07B689B6870
:10143000002B01D1032329E07B681B69002B01D11C
:10144000012323E07B689A683B6811681960127970
:101450001A717B6899687B6818687B68DA6813463C
:101460009B001344053B0344994204D17B681A68EE
:101470007B689A6004E07B689B685A1D7B689A6071
:101480007B681B695A1E7B681A61022318460C3759
:10149000BD4680BC7047000080B485B000AF0346F5
:1014A0000A46FB711346BB71FB799B08FB73FB7902
:1014B00003F00303DBB29B00BB730D4AFB7B0233DB
:1014C00052F82330BA7B0F2101FA02F2D2431A40BC
:1014D000B979BB7B01FA03F318460549FB7B02434C
:1014E000023341F8232000BF1437BD4680BC70474B
:1014F0000000014080B584B000AF78607B681B7A43
:101500009BB2BB810423FB817B685B6807F10C0203
:101510001146184600F09EF97B681A787B685B7A62
:1015200019461046FFF7B8FF3B4B9B687A68127864
:10153000114601228A40D2431146374A0B4093603C
:10154000354BDB687A681278114601228A40D24313
:101550001146314A0B40D3607B681B7B002B03D0C4
:101560007B681B7B022B0AD12B4B9B687A68127815
:10157000114601228A401146274A0B4393607B683B
:101580001B7B012B03D07B681B7B022B0AD1224BD8
:10159000DB687A681278114601228A4011461E4A99
:1015A0000B43D3607B689A7A7B689B7B1946104615
:1015B00000F026FA7B681B7819467B681B69174A7E
:1015C00042F821307B685B7B012B10D1124B1B68EA
:1015D0007A681278114601228A4011460E4A0B435E
:1015E00013607B689B7A184600F0CBF910E00A4B39
:1015F0001B687A681278114601228A40D24311464C
:10160000054A0B4013607B689B7A184600F0DCF9B2
:1016100000BF1037BD4680BD00040140D800002047
:1016200080B500AF054B5B69044A43F00103536189
:10163000034B1B68984700BF80BD00BF00040140FA
:10164000D800002080B500AF054B5B69044A43F029
:1016500002035361034B5B68984700BF80BD00BF26
:1016600000040140D800002080B500AF054B5B6945
:10167000044A43F004035361034B9B68984700BF3F
:1016800080BD00BF00040140D800002080B500AF3D
:10169000054B5B69044A43F008035361034BDB6865
:1016A000984700BF80BD00BF00040140D800002063
:1016B00080B500AF054B5B69044A43F010035361EA
:1016C000034B1B69984700BF80BD00BF0004014069
:1016D000D800002080B500AF284B5B695B0903F0A0
:1016E0000103012B08D1254B5B69244A43F02003F9
:1016F0005361234B5B699847204B5B699B0903F05F
:101700000103012B08D11D4B5B691C4A43F04003C8
:1017100053611B4B9B699847184B5B69DB0903F0CE
:101720000103012B08D1154B5B69144A43F0800378
:101730005361134BDB699847104B5B691B0A03F03D
:101740000103012B08D10D4B5B690C4A43F48073F4
:1017500053610B4B1B6A9847084B5B695B0A03F0AC
:101760000103012B08D1054B5B69044A43F4007364
:101770005361034B5B6A984700BF80BD0004014082
:10178000D800002080B500AF304B5B699B0A03F0A6
:101790000103012B08D12D4B5B692C4A43F4806374
:1017A00053612B4B9B6A9847284B5B69DB0A03F01C
:1017B0000103012B08D1254B5B69244A43F40063E4
:1017C0005361234BDB6A9847204B5B691B0B03F08B
:1017D0000103012B08D11D4B5B691C4A43F4805364
:1017E00053611B4B1B6B9847184B5B695B0B03F0FA
:1017F0000103012B08D1154B5B69144A43F40053D4
:101800005361134B5B6B9847104B5B699B0B03F069
:101810000103012B08D10D4B5B690C4A43F4804353
:1018200053610B4B9B6B9847084B5B69DB0B03F0D9
:101830000103012B08D1054B5B69044A43F40043C3
:101840005361034BDB6B984700BF80BD0004014030
:10185000D800002080B485B000AF786039603B6864
:101860001B88072B01D87B6801E07B680433FB6091
:101870003B681B88DBB203F00703DBB29B00FB7203
:10188000FB681B68FA7A0F2101FA02F2D2431A4070
:10189000FB681A603B685B88102B14D1FB681B68DF
:1018A000FA7A082101FA02F21A43FB681A607B688F
:1018B000DB683A681288114601228A40D2431A40F6
:1018C0007B68DA6018E0FB681B683A68528811464A
:1018D000FA7A01FA02F21A43FB681A603B685B88E5
:1018E000082B09D17B68DB683A681288114601220F
:1018F0008A401A437B68DA6000BF1437BD4680BC5B
:10190000704780B485B000AF78600B467B807B6801
:101910009B687A88012101FA02F21A407B8822FA38
:1019200003F3002B14BF01230023DBB2FB73FB7B0B
:1019300018461437BD4680BC704780B483B000AFF2
:1019400078600B467B8013467B707B78012B09D136
:101950007B68DB687A88012101FA02F21A437B680E
:10196000DA6009E07B68DB687A88012101FA02F21B
:10197000D2431A407B68DA6000BF0C37BD4680BC9A
:10198000704780B485B000AF0346FB71FB795B09FB
:10199000FB73FB7B9B0003F1604303F561431A6813
:1019A000FB7903F01F03012101FA03F31946FB7BC6
:1019B0009B0003F1604303F561430A431A6000BFD3
:1019C0001437BD4680BC704780B485B000AF034675
:1019D000FB71FB795B09FB73FB7903F01F030122A9
:1019E00002FA03F1FB7B9A00044B13440A461A6087
:1019F00000BF1437BD4680BC704700BF80E100E0E7
:101A000080B485B000AF03460A46FB711346BB7134
:101A1000FB799B08FB73FB7903F00303DBB2DB006C
:101A2000DBB20433BB73FB7B9B0003F1604303F524
:101A300064431A68BB7B0F2101FA03F3DB431946A9
:101A4000FB7B9B0003F1604303F564430A401A608B
:101A5000FB7B9B0003F1604303F564431A68BB7989
:101A600003F00F01BB7B01FA03F31946FB7B9B00DC
:101A700003F1604303F564430A431A6000BF14375F
:101A8000BD4680BC7047000080B483B000AF002327
:101A90007B600D4B5B689B0803F00303012B07D0B1
:101AA000012B02D3022B06D008E0084B7B6005E037
:101AB000074B7B6002E0064B7B6000BF7B681846EB
:101AC0000C37BD4680BC70470010024000127A00FF
:101AD0000024F40080B586B000AF78607B686B4A64
:101AE00093420CD10023FB750423FB740523BB75C3
:101AF00006233B7507237B75654BFB600BE00123D9
:101B0000FB750C23FB740D23BB750E233B750F2354
:101B10007B75604BFB60FB7D5F4A1B0113441B8898
:101B2000042B59D1BB7D9BB23B8109237B8107F1FB
:101B300008031946F868FFF78DFE7B7D9BB23B8159
:101B400009237B8107F108031946F868FFF782FE35
:101B5000FB7D514A1B01134402331B88002B08D024
:101B6000FB7D4D4A1B01134402331B88B3F5806F84
:101B70000AD13B7D9BB23B8104237B8107F10803A3
:101B80001946F868FFF766FEFB7D434A1B011344C4
:101B90000C331B88002B0BD1FB7C9BB23B810423B5
:101BA0007B8107F108031946F868FFF753FE69E0E7
:101BB000FB7D394A1B0113440C331B88042B61D174
:101BC000FB7C9BB23B8109237B8107F1080319460B
:101BD000F868FFF73FFE55E0BB7D9BB23B810423D5
:101BE0007B8107F108031946F868FFF733FEFB7D98
:101BF000294A1B01134402331B88002B08D0FB7DAC
:101C0000254A1B01134402331B88B3F5806F0AD1A8
:101C10007B7D9BB23B8104237B8107F1080319463E
:101C2000F868FFF717FEFB7D1B4A1B0113440233C4
:101C30001B88002B08D0FB7D174A1B01134402337D
:101C40001B88B3F5404F0AD13B7D9BB23B810923F2
:101C50007B8107F108031946F868FFF7FBFDFB7D60
:101C60000D4A1B0113440C331B88002B0AD1FB7C4B
:101C70009BB23B8104237B8107F108031946F86876
:101C8000FFF7E8FD00BF1837BD4680BD00300140BA
:101C900000080140000C01408C00002090B583B08A
:101CA00000AF786039607B68344A93420ED1344B80
:101CB0009B69334A43F480539361324A3B6814462C
:101CC000186859689A68DB680FC40FE02C4BDB6911
:101CD0002B4A43F48043D3612A4B3A6803F1100442
:101CE0001346186859689A68DB680FC47B6800223D
:101CF0001A607B681B683A6851883A6812880A4300
:101D000091B23A68D2880A4391B23A6892880A43FB
:101D100091B23A68D2890A4391B23A6812890A4369
:101D200091B23A6852890A4392B21A437B681A60A8
:101D30003B689B89B3F5407F04D03B689B89B3F532
:101D4000007F07D17B681B683A6892891A437B68D9
:101D50001A6006E07B685B683A6892891A437B6880
:101D60005A607B681B6843F040027B681A607868A1
:101D7000FFF7B0FE00BF0C37BD4690BD00300140FC
:101D8000001002408C00002080B487B000AFF860E3
:101D9000B9601346FB71FB68154A934214BF0123D7
:101DA0000023DBB2FB75FB79002B06D100BFFB687B
:101DB0009B6803F00203002BF9D0FB7D0D4A1B0149
:101DC000134402331B88002B08D0FB7D094A1B01FA
:101DD000134402331B88B3F5404F04D1BB681B8802
:101DE0001A46FB68DA6000BF1C37BD4680BC7047EE
:101DF000003001408C00002080B487B000AFF86054
:101E0000B9601346FB71FB681A4A934214BF012361
:101E10000023DBB2FB75FB79002B06D100BFFB680A
:101E20009B6803F00103002BF9D0FB7D124A1B01D4
:101E3000134402331B88002B11D0FB7D0E4A1B017B
:101E4000134402331B88B3F5004F08D0FB7D0A4AC8
:101E50001B01134402331B88B3F5806F04D1FB6868
:101E6000DB689AB2BB681A8000BF1C37BD4680BCD5
:101E7000704700BF003001408C00002080B584B066
:101E800000AFF8600B467A60FB72FB68114A934220
:101E90000BD12320FFF775FDFB7A9B09DBB21946B6
:101EA0000D4A7B6842F821300AE02420FFF769FDE3
:101EB000FB7A9B09DBB21946084A7B6842F821305D
:101EC000FB685A68FB7A1A43FB685A6000BF1037F8
:101ED000BD4680BD00300140AC000020B8000020AD
:101EE00080B500AF1A4B5B6803F02003002B0ED0C7
:101EF000174B9B6803F04003002B05D1144B9B68E4
:101F000003F02003002B02D0124B1B689847104BA4
:101F10005B6803F04003002B08D00D4B9B6803F077
:101F20000103002B02D00B4B5B689847084B5B68A2
:101F300003F08003002B08D0054B9B6803F00203DD
:101F4000002B02D0034B9B68984700BF80BD00BFA9
:101F500000300140AC00002080B500AF1A4B5B6838
:101F600003F02003002B0ED0174B9B6803F04003B7
:101F7000002B05D1144B9B6803F02003002B02D0EB
:101F8000124B1B689847104B5B6803F04003002B13
:101F900008D00D4B9B6803F00103002B02D00B4BC4
:101FA0005B689847084B5B6803F08003002B08D000
:101FB000054B9B6803F00203002B02D0034B9B6888
:101FC000984700BF80BD00BF00380040B800002027
:101FD00080B584B000AF78600023FB60FFF754FD4C
:101FE000F860FA687B68B2FBF3F3FB60FB681846A5
:101FF0001037BD4680BD000080B584B000AF78606A
:102000000023FB737B68B3F1807F17D200F02EF8BA
:102010000E4A7B6853600D4B00229A600B4B1B6885
:1020200023F00602094B1B68084913430B60074B5A
:102030001B68064A43F00603136001E00123FB73AB
:10204000FB7B18461037BD4680BD00BF10E000E0A6
:1020500080B400AF044B1B68034A43F001031360D4
:1020600000BFBD4680BC704710E000E080B400AF08
:10207000044B1B68034A23F00103136000BFBD46F5
:1020800080BC704710E000E090B589B000AF786088
:1020900039600023FB774FF000034FF00004C7E9DD
:1020A00004340023FB601948FFF792FFF8607B6857
:1020B000FA6802FB03F34FF00004C7E90434D7E9E0
:1020C00004346FF07F414FF00002A24208BF9942F2
:1020D00015D33B68002B12D03B691846FFF78CFFE5
:1020E0000B4A3B6813600B4B01221A700A4B1B68AA
:1020F000094A43F002031360FFF7AAFF01E001233E
:10210000FB77FB7F18462437BD4690BD40420F0049
:10211000C4000020C800002010E000E080B500AF3F
:102120000A4B1B78002B01D1FFF7A0FF084B1B685F
:10213000002B02D0064B1B689847064B1B68054ACC
:1021400023F48033136000BF80BD00BFC8000020AF
:10215000C400002010E000E070B500250C4E0D4CCE
:10216000A41BA410A54209D100F022F800250A4EB4
:102170000A4CA41BA410A54205D170BD56F8253009
:1021800098470135EEE756F8253098470135F2E7D4
:10219000202300082023000820230008242300080F
:1021A000034611F8012B03F8012B002AF9D17047DF
:1021B000F8B500BFF8BC08BC9E467047F8B500BF34
:0821C000F8BC08BC9E46704704
:1021C800456E7465722049443A0000004944732002
:1021D800636F756E74206578636565646564000077
:1021E8006D61696E206D656E75203D3E20272A273A
:1021F80000000000494420416464656420737563ED
:102208006365737366756C6C7900000049442061DE
:102218006C726561647920657869737400000000E8
:1022280049442044656C6574656421004944204430
:102238006F65736E27742045786973740000000019
:10224800494473204C69737420456D70747900009B
:10225800507265737320272A27000000746F204C82
:102268006F67696E000000005573657249443A0053
:1022780050617373776F72643A00000057726F6E23
:1022880067204C6F67696E20496E666F000000001A
:1022980054727920616761696E20696E00000000E0
:1022A8003130207365636F6E64730000312E4164B2
:1022B80064206E657720494400000000322E526584
:1022C8006D6F766520616E2049440000332E536897
:1022D8006F7720494473204C69737400272A27209C
:1022E800746F206C6F676F75740000004C697374AD
:1022F80020456D707479000004000000000801405A
:1023080004000A0033323136353439383723302A5D
:082318000C0D0E0F0B0908006B
:04232000550100085B
:04232400310100087B
:102328003132333400303030300031343832003616
:082338003636360001000000FA
:040000050800019559
:00000001FF
