:020000040800F2
:100000000028002095010008E5010008E50100082E
:10001000E5010008E5010008E50100080000000016
:10002000000000000000000000000000E5010008E2
:10003000E501000800000000E501000801140008C7
:10004000E5010008E5010008E5010008E5010008F8
:10005000E5010008E5010008E5010008E5010008E8
:10006000E5010008E5010008E5010008E5010008D8
:10007000E5010008E5010008E5010008E5010008C8
:10008000E5010008E5010008E5010008E5010008B8
:10009000E5010008E5010008E5010008E5010008A8
:1000A000E5010008E5010008E5010008E501000898
:1000B000E5010008E5010008E5010008E501000888
:1000C000E5010008E5010008E5010008E501000878
:1000D000E5010008E5010008E5010008E501000868
:1000E000E5010008E501000800000000E501000846
:1000F000E5010008E5010008E5010008E501000848
:10010000E5010008E5010008E5010008E501000837
:10011000E5010008E5010008E5010008E501000827
:10012000E5010008E5010008E5010008E501000817
:1001300010B5054C237833B9044B13B10448AFF321
:1001400000800123237010BD180000200000000073
:100150009414000808B5034B1BB103490348AFF3DF
:10016000008008BD000000001C000020941400085E
:1001700010F8012B11F8013B012A28BF9A42F7D051
:10018000D01A704780B500AF00F02DF800F032F8BB
:10019000FCE700000D488546AFF300800C480D4990
:1001A0000D4A002302E0D458C4500433C4188C42D2
:1001B000F9D30A4A0A4C002301E013600432A24238
:1001C000FBD301F03BF9FFF7DDFFFEE7002800203D
:1001D0000000002018000020001600081800002071
:1001E00078000020FEE780B500AF00F0C9F900BF3D
:1001F00080BD000080B500AF024B1B68984700BF70
:1002000080BD00BF7000002080B400AF0A4B9B6926
:10021000094A43F004039361074B9B69064A43F084
:1002200008039361044B9B69034A43F00103936104
:1002300000BFBD4680BC70470010024080B500AFD3
:1002400000F0D2FC03461A46054B1A70044B1B788B
:100250002A2B02D1034B044A1A6000BF80BD00BFA5
:100260003400002070000020A508000880B500AF11
:1002700000F050FF0C4B1B78042B06D80B4800F005
:10028000EDFE0B4B0B4A1A600CE00B4800F0E6FE4B
:100290000021032000F0F6FE084800F0DFFE044BCA
:1002A000074A1A6000BF80BD60000020AC1400083F
:1002B0007000002099090008B8140008CC14000848
:1002C0003D02000880B500AF0F4B1B789B000F4A22
:1002D00013440F49184601F0D5F80B4B1B78013336
:1002E000DAB2094B1A7000F015FF0A4800F0B6FEAA
:1002F0000021032000F0C6FE074800F0AFFE074BC8
:10030000074A1A6000BF80BD600000204C0000203A
:1003100048000020E0140008CC1400087000002001
:100320003D02000880B500AF00F0F4FE074800F081
:1003300095FE0021032000F0A5FE054800F08EFE8A
:10034000044B054A1A6000BF80BD00BFF8140008C6
:10035000CC140008700000203D02000880B500AFFA
:1003600000F0D8FE074800F079FE0021032000F0DD
:1003700089FE054800F072FE044B054A1A6000BF72
:1003800080BD00BF0C150008CC14000870000020D0
:100390003D02000880B500AF00F0BCFE074800F049
:1003A0005DFE0021032000F06DFE054800F056FEC2
:1003B000044B054A1A6000BF80BD00BF1815000835
:1003C000CC140008700000203D02000880B582B007
:1003D00000AF0346FB71FA790D4B1B78013B9A4243
:1003E0000CDAFB799B000B4A9818094B1B78013BF0
:1003F0009B00084A1344194601F044F8044B1B784B
:10040000013BDAB2024B1A7000BF0837BD4680BD0F
:10041000600000204C00002080B582B000AF0023B7
:10042000FB71274B1B789B00264A1344194626482C
:10043000FFF79EFE0346002B01D10123FB71FB79E0
:10044000002B17D0214B1B78312B03D1204B214A95
:100450001A600BE01D4B1B78322B07D1184B1B7811
:100460001846FFF7B3FF1A4B1B4A1A60144B0022C1
:100470001A7021E0124B1B780133DAB2104B1A705C
:100480000F4B1A78154B1B789A4203D2104B144A23
:100490001A6011E00A4B00221A700C4B1B78312BAA
:1004A00003D10B4B0F4A1A6006E0084B1B78322B26
:1004B00002D1074B0C4A1A6000BF0837BD4680BD09
:1004C000610000204C000020480000204500002072
:1004D00070000020250300085D0300086000002074
:1004E00019040008C50200089503000880B500AF94
:1004F00000F010FE0C4B1B78002B06D00B4800F0D0
:10050000ADFD0B4B0B4A1A600CE00B4800F0A6FD4A
:100510000021032000F0B6FD084800F09FFD044BC9
:10052000074A1A6000BF80BD60000020AC140008BC
:1005300070000020410A00082C150008CC140008A7
:100540003D02000880B500AF0A4B1B78042B08D190
:10055000084B00221A7000F0FBFE074B074A1A6096
:1005600005E0044B1B780133DAB2024B1A7000BF6E
:1005700080BD00BF6200002070000020A5050008BB
:1005800080B500AFFFF740FE00F01AFC00F0E4FA7F
:10059000024B034A1A6000BF80BD00BF70000020FC
:1005A000A505000880B500AF00F0B4FD04210120CE
:1005B00000F068FD074800F051FD0421022000F022
:1005C00061FD054800F04AFD044B054A1A6000BF72
:1005D00080BD00BF3C1500084815000870000020D1
:1005E000E505000880B500AF00F0FEFA03461A46A4
:1005F000074B1A70064B1B782A2B03D1054B064A72
:100600001A6002E0034B054A1A6000BF80BD00BFBC
:10061000340000207000002021060008E5050008D5
:1006200080B500AF00F076FD0C4800F017FD00210A
:10063000012000F027FD0A4800F010FD094B1B784F
:10064000012B06D90021032000F01CFD064800F014
:1006500005FD064B064A1A6000BF80BD5415000810
:100660005C150008140000206815000870000020C8
:100670007506000880B500AF1B4B1B780733DBB253
:100680001946002000F0FEFC00F0AEFA03461A46C0
:10069000164B1A70154B1B784E2B0FD0134B1B7833
:1006A000184600F063FC104B1B785A1CD1B20E4A5E
:1006B00011701A460D4B19780D4B99540A4B1B7843
:1006C000032B0CD9084B1B781A46094B002199546F
:1006D000054B00221A70074B074A1A6002E0054BCF
:1006E000064A1A6000BF80BD35000020340000209B
:1006F000380000207000002001070008750600087F
:1007000080B500AF1A4B1B780933DBB219460120C4
:1007100000F0B8FC00F068FA03461A46154B1A7050
:10072000144B1B784E2B0DD02A2000F01FFC104BD1
:100730001B785A1CD1B20E4A11701A460D4B19780B
:100740000D4B99540A4B1B78032B0CD9084B1B7883
:100750001A46094B00219954054B00221A70074B89
:10076000074A1A6002E0054B064A1A6000BF80BDC6
:1007700035000020340000204000002070000020E0
:10078000890700080107000880B582B000AF002388
:10079000FB710023BB7122E0BA7913469B0013441E
:1007A0005B00214A134421491846FFF7E1FC034648
:1007B000002B11D1BA7913469B0013445B001A4AEF
:1007C000134405331A491846FFF7D2FC0346002BA1
:1007D00002D10123FB7105E0BB790133BB71BB7909
:1007E000012BD9D9FB79012B06D1124B01221A70AA
:1007F000114B124A1A6013E00E4B1B78022B09D8DA
:100800000C4B1B780133DAB20A4B1A700A4B0C4AB4
:100810001A6005E0074B01221A70074B094A1A605B
:1008200000BF0837BD4680BD000000203800002012
:10083000400000201400002070000020A5080008DF
:10084000210600084908000880B500AF00F062FCEE
:100850000221012000F016FC094800F0FFFB0321F3
:10086000022000F00FFC074800F0F8FB064907489B
:1008700000F07CFD064B074A1A6000BF80BD00BF38
:100880007C1500088C1500084505000880841E00B2
:10089000700000209908000880B400AF00BFBD467A
:1008A00080BC704780B500AF00F034FC0E4800F00B
:1008B000D5FB0021012000F0E5FB0C4800F0CEFB49
:1008C0000021022000F0DEFB094800F0C7FB0021F8
:1008D000032000F0D7FB074800F0C0FB064B074A97
:1008E0001A6000BF80BD00BF98150008A815000859
:1008F000B8150008C815000870000020010900089C
:1009000080B500AF00F070F903461A461B4B1A7011
:100910001A4B1B782A3B092B28D801A252F823F046
:10092000650900086D0900086D0900086D090008D7
:100930006D0900086D0900086D09000849090008E3
:1009400051090008590900080D4B0E4A1A600EE0C3
:100950000B4B0D4A1A600AE000F0DCFB084B0B4A17
:100960001A6004E0064B0A4A1A6000E000BF034B1D
:100970001A78084B1A7000BF80BD00BF34000020F9
:10098000700000206D020008ED040008D10A000884
:10099000A50500084500002080B500AF204B1B785E
:1009A0000933DBB21946002000F06CFB00F01CF9A3
:1009B00003461A461B4B1A701A4B1B784E2B11D04C
:1009C000184B1B78184600F0D1FA154B1B781A46C5
:1009D000144B1978144B9954114B1B780133DAB22C
:1009E0000F4B1A700E4B1B78022B14D90C4B1B7833
:1009F0001A460D4B00219954094B00221A700B4BDB
:100A00001B78002B03D10A4B0A4A1A6006E0084BF8
:100A1000094A1A6002E0064B084A1A6000BF80BD0E
:100A20003500002034000020480000206000002035
:100A300070000020C5020008190400089909000888
:100A400080B500AF1C4B1B780933DBB21946002080
:100A500000F018FB00F0C8F803461A46174B1A704E
:100A6000164B1B784E2B11D0144B1B78184600F0F8
:100A70007DFA114B1B781A46104B1978104B99547C
:100A80000D4B1B780133DAB20B4B1A700A4B1B78F3
:100A9000022B0CD9084B1B781A46094B002199549C
:100AA000054B00221A70074B074A1A6002E0054BFB
:100AB000064A1A6000BF80BD3500002034000020C7
:100AC000480000207000002019040008990900085F
:100AD00080B500AF184B1B78002B11D0174B1B783B
:100AE0009B00174A1344184600F0B8FA2C2000F077
:100AF0003DFA124B1B780133DAB2104B1A7002E048
:100B0000104800F0ABFA0D4B1A780B4B1B789A4249
:100B10000DD30A4B00221A700021032000F0B2FA14
:100B2000094800F09BFA094B094A1A6002E0074B9A
:100B3000084A1A6000BF80BD6000002063000020EA
:100B40004C000020D8150008CC14000870000020CC
:100B50003D020008D10A000880B582B000AF0C2326
:100B6000BB800823FB803B1D19461E4800F0E4FAB9
:100B70000D23BB800823FB803B1D1946194800F05C
:100B8000DBFA0E23BB800823FB803B1D194615486A
:100B900000F0D2FA0F23BB800823FB803B1D1946CF
:100BA000104800F0C9FA0B23BB800123FB803B1DDA
:100BB00019460C4800F0C0FA0923BB800123FB80D2
:100BC0003B1D1946074800F0B7FA0823BB800123F4
:100BD000FB803B1D1946034800F0AEFA00BF083702
:100BE000BD4680BD000C014080B586B000AF3A4ADA
:100BF00007F1080307CA83E80700384B1B687B60CE
:100C0000374A3B461268114619800233120C1A709B
:100C10004E237B750023FB7553E001220B213148E5
:100C200000F0FDFA012209212E4800F0F8FA012215
:100C300008212C4800F0F3FAFB7D07F11802134459
:100C400013F8183C9BB200221946264800F0E7FA38
:100C50000023BB752CE0BB7D07F11802134413F889
:100C6000143C9BB219461F4800F0BDFA0346002B06
:100C70001BD100BFBB7D07F11802134413F8143CCD
:100C80009BB21946174800F0AEFA0346002BF1D08C
:100C9000BA7D13465B001A44FB7D134407F118022A
:100CA000134413F8103C7B7505E0BB7D0133BB7525
:100CB000BB7D032BCFD97B7D4E2B06D1FB7D013332
:100CC000FB75FB7D022BA8D900E000BF7B7D184699
:100CD0001837BD4680BD00BFE4150008F0150008B8
:100CE000F4150008000C014080B485B000AF034645
:100CF000FB710023FB7310E00023BB7304E0BB7B9C
:100D0000DBB20133DBB2BB73BB7BDBB2632BF6D947
:100D1000FB7BDBB20133DBB2FB73FB7BDBB2FA792B
:100D20009A42E9D800BF1437BD4680BC7047000026
:100D300080B500AF01220521064800F070FA32208C
:100D4000FFF7D2FF00220521024800F068FA00BF39
:100D500080BD00BF000C014080B500AF164B1B7872
:100D60000F2B13D9154B1B78022B0FD8124B0022D7
:100D70001A70124B1B780133DAB2104B1A700F4BFA
:100D80001B780021184600F07DF912E00A4B1B7811
:100D90000F2B0ED9094B1B78032B0AD100F0BAF99F
:100DA000802000F075F8044B00221A70034B0022DB
:100DB0001A7000BF80BD00BF6400002065000020E5
:100DC00080B500AF1420FFF78FFF2E4B04221A804E
:100DD0002C4B01225A802B492B4800F0ADF9294BAE
:100DE00005221A80274B01225A802649264800F006
:100DF000A3F900220521244800F011FA0022042161
:100E0000214800F00CFA0F20FFF76EFF1D4B0A225D
:100E10001A801C4B01225A801A491C4800F08CF998
:100E2000184B0B221A80174B01225A80154917487C
:100E300000F082F9134B0C221A80124B01225A80C7
:100E40001049124800F078F90E4B0F221A800D4B12
:100E500001225A800B490D4800F06EF90520FFF77A
:100E600043FF022000F014F8282000F011F80620BB
:100E700000F00EF8802000F00BF80F2000F008F8CA
:100E800000BF80BD74000020000C0140000801403C
:100E900080B582B000AF0346FB71002204213148C7
:100EA00000F0BDF9002205212E4800F0B8F9FB79C9
:100EB0001B11DBB203F00103DBB21A460A212A48F8
:100EC00000F0ADF9FB795B11DBB203F00103DBB29B
:100ED0001A460B21244800F0A2F9FB799B11DBB2E2
:100EE00003F00103DBB21A460C211F4800F097F90A
:100EF000FB79DB09DBB21A460F211B4800F08FF9A2
:100F0000FFF716FFFB7903F00103DBB21A460A2153
:100F1000154800F084F9FB795B10DBB203F00103A4
:100F2000DBB21A460B21104800F079F9FB799B10CF
:100F3000DBB203F00103DBB21A460C210A4800F0D1
:100F40006EF9FB79DB10DBB203F00103DBB21A466A
:100F50000F21054800F063F9FFF7EAFE00BF0837EC
:100F6000BD4680BD000C01400008014080B582B044
:100F700000AF0346FB71FFF7EFFE01220421344866
:100F800000F04DF900220521314800F048F9FB79C5
:100F90001B11DBB203F00103DBB21A460A212D4814
:100FA00000F03DF9FB795B11DBB203F00103DBB22A
:100FB0001A460B21274800F032F9FB799B11DBB26E
:100FC00003F00103DBB21A460C21224800F027F996
:100FD000FB79DB09DBB21A460F211E4800F01FF92E
:100FE000FFF7A6FEFB7903F00103DBB21A460A21E4
:100FF000184800F014F9FB795B10DBB203F0010331
:10100000DBB21A460B21134800F009F9FB799B105B
:10101000DBB203F00103DBB21A460C210D4800F0ED
:10102000FEF8FB79DB10DBB203F00103DBB21A46FA
:101030000F21084800F0F3F8FFF77AFE064B1B7803
:101040000133DAB2044B1A7000BF0837BD4680BDC9
:10105000000C0140000801406400002080B582B00F
:1010600000AF786006E07B685A1C7A601B781846EF
:10107000FFF77CFF7B681B78002BF4D100BF08379B
:10108000BD4680BD80B582B000AF03460A46FB7105
:101090001346BB71BB790F2B33D8FB79032B30D8A8
:1010A000FB79032B26D801A252F823F0BD100008CB
:1010B000CB100008D9100008E7100008BB79803B6E
:1010C000DBB21846FFF7E4FE15E0BB79403BDBB22C
:1010D0001846FFF7DDFE0EE0BB79703BDBB2184629
:1010E000FFF7D6FE07E0BB79303BDBB21846FFF7CF
:1010F000CFFE00E000BF054AFB791370044ABB79BC
:10110000137000BF0837BD4680BD00BF65000020DA
:101110006400002080B500AF0120FFF7B9FE044B4A
:1011200000221A70034B00221A7000BF80BD00BF5E
:10113000640000206500002080B485B000AF7860B6
:1011400039603B681B88072B01D87B6801E07B680E
:101150000433FB603B681B88DBB203F00703DBB2A0
:101160009B00FB72FB681B68FA7A0F2101FA02F2FE
:10117000D2431A40FB681A603B685B88102B14D17D
:10118000FB681B68FA7A082101FA02F21A43FB682D
:101190001A607B68DB683A681288114601228A402F
:1011A000D2431A407B68DA6018E0FB681B683A6833
:1011B00052881146FA7A01FA02F21A43FB681A6061
:1011C0003B685B88082B09D17B68DB683A6812882A
:1011D000114601228A401A437B68DA6000BF143747
:1011E000BD4680BC704780B485B000AF78600B46C8
:1011F0007B807B689B687A88012101FA02F21A40A1
:101200007B8822FA03F3002B14BF01230023DBB2F7
:10121000FB73FB7B18461437BD4680BC704780B417
:1012200083B000AF78600B467B8013467B707B7881
:10123000012B09D17B68DB687A88012101FA02F26F
:101240001A437B68DA6009E07B68DB687A880121F1
:1012500001FA02F2D2431A407B68DA6000BF0C3711
:10126000BD4680BC7047000080B483B000AF00234F
:101270007B600D4B5B689B0803F00303012B07D0D9
:10128000012B02D3022B06D008E0084B7B6005E05F
:10129000074B7B6002E0064B7B6000BF7B68184613
:1012A0000C37BD4680BC70470010024000127A0027
:1012B0000024F40080B584B000AF78600023FB60A8
:1012C000FFF7D2FFF860FA687B68B2FBF3F3FB60CC
:1012D000FB6818461037BD4680BD000080B584B05D
:1012E00000AF78600023FB737B68B3F1807F17D277
:1012F00000F02EF80E4A7B6853600D4B00229A6076
:101300000B4B1B6823F00602094B1B68084913436B
:101310000B60074B1B68064A43F00603136001E0AD
:101320000123FB73FB7B18461037BD4680BD00BF11
:1013300010E000E080B400AF044B1B68034A43F0A8
:101340000103136000BFBD4680BC704710E000E0A1
:1013500080B400AF044B1B68034A23F00103136001
:1013600000BFBD4680BC704710E000E090B589B07A
:1013700000AF786039600023FB774FF000034FF037
:101380000004C7E904340023FB601948FFF792FF0B
:10139000F8607B68FA6802FB03F34FF00004C7E9CA
:1013A0000434D7E904346FF07F414FF00002A242C9
:1013B00008BF994215D33B68002B12D03B691846F1
:1013C000FFF78CFF0B4A3B6813600B4B01221A702E
:1013D0000A4B1B68094A43F002031360FFF7AAFF98
:1013E00001E00123FB77FB7F18462437BD4690BD03
:1013F00040420F00680000206C00002010E000E078
:1014000080B500AF0A4B1B78002B01D1FFF7A0FF7E
:10141000084B1B68002B02D0064B1B689847064BF5
:101420001B68054A23F48033136000BF80BD00BFF2
:101430006C0000206800002010E000E070B500257E
:101440000C4E0D4CA41BA410A54209D100F022F8AB
:1014500000250A4E0A4CA41BA410A54205D170BD5C
:1014600056F8253098470135EEE756F8253098476D
:101470000135F2E7F8150008F8150008F81500081E
:10148000FC150008034611F8012B03F8012B002A74
:10149000F9D17047F8B500BFF8BC08BC9E4670474C
:0C14A000F8B500BFF8BC08BC9E467047C1
:1014AC00456E7465722049443A000000494473202B
:1014BC00636F756E742065786365656465640000A0
:1014CC006D61696E206D656E75203D3E20272A2763
:1014DC000000000049442041646465642073756316
:1014EC006365737366756C6C790000004944206108
:1014FC006C72656164792065786973740000000012
:10150C0049442044656C6574656421004944204459
:10151C006F65736E27742045786973740000000042
:10152C00494473204C69737420456D7074790000C4
:10153C00507265737320272A27000000746F204CAB
:10154C006F67696E000000005573657249443A007C
:10155C0050617373776F72643A00000057726F6E4C
:10156C0067204C6F67696E20496E666F0000000043
:10157C0054727920616761696E20696E0000000009
:10158C003130207365636F6E64730000312E4164DB
:10159C0064206E657720494400000000322E5265AD
:1015AC006D6F766520616E2049440000332E5368C0
:1015BC006F7720494473204C69737400272A2720C5
:1015CC00746F206C6F676F75740000004C697374D6
:1015DC0020456D707479000033323136353439382A
:0C15EC003723302A0C0D0E0F0B090800ED
:0415F8005501000891
:0415FC0031010008B1
:10160000313233340030303030003134383200364B
:0816100036363600010000002F
:040000050800019559
:00000001FF
