:020000040800F2
:100000000028002095010008E5010008E50100082E
:10001000E5010008E5010008E50100080000000016
:10002000000000000000000000000000E5010008E2
:10003000E501000800000000E5010008BD230008FC
:10004000E5010008E5010008E5010008E5010008F8
:10005000E5010008E50100084118000865180008DE
:1000600089180008AD180008D1180008E50100083B
:10007000E5010008E5010008E5010008E5010008C8
:10008000E5010008E5010008E5010008E5010008B8
:10009000E5010008E5010008E5010008F518000881
:1000A000E5010008E5010008E5010008E501000898
:1000B000E5010008E5010008E5010008E501000888
:1000C000E5010008E5010008E501000881210008BC
:1000D000F9210008E5010008E5010008E501000834
:1000E000A5190008E501000800000000E50100086E
:1000F000E5010008E5010008E5010008E501000848
:10010000E5010008E5010008E5010008E501000837
:10011000E5010008E5010008E5010008E501000827
:10012000E5010008E5010008E5010008E501000817
:1001300010B5054C237833B9044B13B10448AFF321
:1001400000800123237010BD30000020000000005B
:100150005024000808B5034B1BB103490348AFF313
:10016000008008BD0000000034000020502400087A
:1001700010F8012B11F8013B012A28BF9A42F7D051
:10018000D01A704780B500AF00F02DF800F034F8B9
:10019000FCE700000D488546AFF300800C480D4990
:1001A0000D4A002302E0D458C4500433C4188C42D2
:1001B000F9D30A4A0A4C002301E013600432A24238
:1001C000FBD302F019F9FFF7DDFFFEE7002800205E
:1001D0000000002030000020C8250008300000206A
:1001E00024010020FEE780B500AF00F0CFF900F059
:1001F000CDFD00BF80BD000080B500AF034B1B6884
:100200009847034B1B68984700BF80BDDC00002067
:10021000D800002080B400AF0A4B9B69094A43F024
:1002200004039361074B9B69064A43F008039361FB
:10023000044B9B69034A43F00103936100BFBD4631
:1002400080BC70470010024080B500AF00F0DCFEBB
:1002500003461A46054B1A70044B1B782A2B02D111
:10026000034B044A1A6000BF80BD00BF4C00002051
:10027000DC000020B108000880B500AF01F05AF999
:100280000C4B1B78042B06D80B4801F0F7F80B4BEE
:100290000B4A1A600CE00B4801F0F0F80021032033
:1002A00001F000F9084801F0E9F8044B074A1A6028
:1002B00000BF80BD2C00002068240008DC00002066
:1002C000A5090008742400088824000849020008D1
:1002D00080B500AF0F4B1B789B000F4A13440F49AA
:1002E000184602F0ADF80B4B1B780133DAB2094B1C
:1002F0001A7001F01FF90A4801F0C0F8002103202C
:1003000001F0D0F8074801F0B9F8074B074A1A6026
:1003100000BF80BD2C0000201800002060000020DD
:100320009C24000888240008DC0000204902000802
:1003300080B500AF01F0FEF8074801F09FF80021FA
:10034000032001F0AFF8054801F098F8044B054A86
:100350001A6000BF80BD00BFB424000888240008D4
:10036000DC0000204902000880B500AF01F0E2F88F
:10037000074801F083F80021032001F093F80548B5
:1003800001F07CF8044B054A1A6000BF80BD00BF35
:10039000C824000888240008DC0000204902000866
:1003A00080B500AF01F0C6F8074801F067F80021FA
:1003B000032001F077F8054801F060F8044B054A86
:1003C0001A6000BF80BD00BFD42400088824000844
:1003D000DC0000204902000880B582B000AF03466F
:1003E000FB71FA790D4B1B78013B9A420CDAFB79D1
:1003F0009B000B4A9818094B1B78013B9B00084A4D
:100400001344194602F01CF8044B1B78013BDAB286
:10041000024B1A7000BF0837BD4680BD2C0000207B
:100420001800002080B582B000AF0023FB71274B7D
:100430001B789B00264A134419462648FFF798FE6E
:100440000346002B01D10123FB71FB79002B17D050
:10045000214B1B78312B03D1204B214A1A600BE032
:100460001D4B1B78322B07D1184B1B781846FFF712
:10047000B3FF1A4B1B4A1A60144B00221A7021E07A
:10048000124B1B780133DAB2104B1A700F4B1A78EB
:10049000154B1B789A4203D2104B144A1A6011E094
:1004A0000A4B00221A700C4B1B78312B03D10B4BDB
:1004B0000F4A1A6006E0084B1B78322B02D1074B1B
:1004C0000C4A1A6000BF0837BD4680BD6800002096
:1004D00018000020600000205D000020DC000020EB
:1004E00031030008690300082C00002025040008DF
:1004F000D1020008A103000880B500AF01F01AF88E
:100500000C4B1B78002B06D00B4800F0B7FF0B4BB1
:100510000B4A1A600CE00B4800F0B0FF00210320EA
:1005200000F0C0FF084800F0A9FF044B074A1A601A
:1005300000BF80BD2C00002068240008DC000020E3
:100540004D0A0008E8240008882400084902000831
:1005500080B500AF0A4B1B78042B08D1084B002252
:100560001A7001F0D3FE074B074A1A6005E0044BEE
:100570001B780133DAB2024B1A7000BF80BD00BF96
:1005800069000020DC000020B105000880B500AF44
:10059000FFF740FE00F024FE00F0EEFC024B034AA1
:1005A0001A6000BF80BD00BFDC000020B10500085C
:1005B00080B500AF00F0BEFF0421012000F072FF03
:1005C000074800F05BFF0421022000F06BFF0548A4
:1005D00000F054FF044B054A1A6000BF80BD00BF05
:1005E000F824000804250008DC000020F1050008BC
:1005F00080B500AF00F008FD03461A46074B1A709D
:10060000064B1B782A2B03D1054B064A1A6002E0E1
:10061000034B054A1A6000BF80BD00BF4C0000209C
:10062000DC0000202D060008F105000880B500AFB1
:1006300000F080FF0C4800F021FF0021012000F0B5
:1006400031FF0A4800F01AFF094B1B78012B06D92D
:100650000021032000F026FF064800F00FFF064BA4
:10066000064A1A6000BF80BD102500081825000842
:100670001400002024250008DC000020810600086A
:1006800080B500AF1B4B1B780733DBB21946002047
:1006900000F008FF00F0B8FC03461A46164B1A702B
:1006A000154B1B784E2B0FD0134B1B78184600F0C0
:1006B0006DFE104B1B785A1CD1B20E4A11701A46AF
:1006C0000D4B19780D4B99540A4B1B78032B0CD901
:1006D000084B1B781A46094B00219954054B002200
:1006E0001A70074B074A1A6002E0054B064A1A6067
:1006F00000BF80BD4D0000204C00002050000020B5
:10070000DC0000200D0700088106000880B500AF5E
:100710001A4B1B780933DBB21946012000F0C2FEE8
:1007200000F072FC03461A46154B1A70144B1B78E6
:100730004E2B0DD02A2000F029FE104B1B785A1C9E
:10074000D1B20E4A11701A460D4B19780D4B9954BF
:100750000A4B1B78032B0CD9084B1B781A46094B04
:1007600000219954054B00221A70074B074A1A6062
:1007700002E0054B064A1A6000BF80BD4D00002014
:100780004C00002058000020DC00002095070008E5
:100790000D07000880B582B000AF0023FB71002375
:1007A000BB7122E0BA7913469B0013445B00214AD7
:1007B000134421491846FFF7DBFC0346002B11D1F7
:1007C000BA7913469B0013445B001A4A134405335D
:1007D0001A491846FFF7CCFC0346002B02D101232F
:1007E000FB7105E0BB790133BB71BB79012BD9D912
:1007F000FB79012B06D1124B01221A70114B124AC0
:100800001A6013E00E4B1B78022B09D80C4B1B7897
:100810000133DAB20A4B1A700A4B0C4A1A6005E02F
:10082000074B01221A70074B094A1A6000BF0837AC
:10083000BD4680BD00000020500000205800002070
:1008400014000020DC000020B10800082D0600087C
:100850005508000880B500AF00F06CFE02210120B1
:1008600000F020FE094800F009FE0321022000F0FC
:1008700019FE074800F002FE0649074801F054FD42
:10088000064B074A1A6000BF80BD00BF382500082C
:10089000482500085105000880841E00DC00002067
:1008A000A508000880B400AF00BFBD4680BC7047FB
:1008B00080B500AF00F03EFE0E4800F0DFFD0021E5
:1008C000012000F0EFFD0C4800F0D8FD00210220CF
:1008D00000F0E8FD094800F0D1FD0021032000F000
:1008E000E1FD074800F0CAFD064B074A1A6000BF49
:1008F00080BD00BF54250008642500087425000849
:1009000084250008DC0000200D09000880B500AF38
:1009100000F07AFB03461A461B4B1A701A4B1B78E1
:100920002A3B092B28D801A252F823F071090008AC
:10093000790900087909000879090008790900088F
:100940007909000879090008550900085D090008BF
:10095000650900080D4B0E4A1A600EE00B4B0D4A5C
:100960001A600AE000F0E6FD084B0B4A1A6004E04A
:10097000064B0A4A1A6000E000BF034B1A78084B86
:100980001A7000BF80BD00BF4C000020DC000020BA
:1009900079020008F9040008DD0A0008B105000822
:1009A0005D00002080B500AF204B1B780933DBB21F
:1009B0001946002000F076FD00F026FB03461A469B
:1009C0001B4B1A701A4B1B784E2B11D0184B1B78EF
:1009D000184600F0DBFC154B1B781A46144B1978AF
:1009E000144B9954114B1B780133DAB20F4B1A7028
:1009F0000E4B1B78022B14D90C4B1B781A460D4B4F
:100A000000219954094B00221A700B4B1B78002BC4
:100A100003D10A4B0A4A1A6006E0084B094A1A60D9
:100A200002E0064B084A1A6000BF80BD4D0000205E
:100A30004C000020600000202C000020DC00002082
:100A4000D102000825040008A509000880B500AF00
:100A50001C4B1B780933DBB21946002000F022FD45
:100A600000F0D2FA03461A46174B1A70164B1B7841
:100A70004E2B11D0144B1B78184600F087FC114BFD
:100A80001B781A46104B1978104B99540D4B1B7854
:100A90000133DAB20B4B1A700A4B1B78022B0CD9BC
:100AA000084B1B781A46094B00219954054B00222C
:100AB0001A70074B074A1A6002E0054B064A1A6093
:100AC00000BF80BD4D0000204C00002060000020D1
:100AD000DC00002025040008A509000880B500AF4F
:100AE000184B1B78002B11D0174B1B789B00174A13
:100AF0001344184600F0C2FC2C2000F047FC124BB7
:100B00001B780133DAB2104B1A7002E0104800F083
:100B1000B5FC0D4B1A780B4B1B789A420DD30A4B40
:100B200000221A700021032000F0BCFC094800F0EC
:100B3000A5FC094B094A1A6002E0074B084A1A60F3
:100B400000BF80BD2C0000206A000020180000209B
:100B50009425000888240008DC00002049020008D1
:100B6000DD0A000880B582B000AF0023FB71184B8E
:100B70001B78002B13D0174B1B789B00164A13448D
:100B800019461648FFF7F4FA0346002B01D101235A
:100B9000FB71104B1B780133DAB20E4B1A70FB79E4
:100BA000002B05D00B4B00221A7000F0C9F90AE0A7
:100BB000084B1A78064B1B789A4204D3054B002247
:100BC0001A7000F0CBF900BF0837BD4680BD00BFEA
:100BD0002C0000206B000020180000206400002082
:100BE00080B582B000AF78607968034801F028FCD6
:100BF00000BF0837BD4680BD6400002080B582B0CC
:100C000000AF2A4B1B78002B15D101222849294817
:100C100001F002FA264B1B78E72B17D0264B1B78E6
:100C20000133DAB2244B1A70204B1B78013BDAB245
:100C30001E4B1A700AE01D4B1B78013B1C4A1344E3
:100C40000133012219461B4801F0E6F9174B1B78C6
:100C50000133DAB2154B1A70144B1B78042B03D0F6
:100C6000154B1B780A2B14D1134B1B780A2B0CD075
:100C70000E4B1B78013B0E4A134400225A700C4B5A
:100C800093E806000D4800F087FC084B00221A701C
:100C900007E00023FB80BB1D01221946054801F037
:100CA00083F900BF0837BD4680BD00BF9200002019
:100CB0008C00002000300140930000206C000020D8
:100CC00080B582B000AF4FF6FF73FB80BB1D0122E1
:100CD0001946034801F068F900BF0837BD4680BDDA
:100CE0000030014080B584B000AF04233B80002376
:100CF0007B800023BB808023FB8002233B81012378
:100D00007B814FF44073BB811023FB813B46194626
:100D1000074801F0D3F8074A8021054801F0E0F9BF
:100D20000521232000F07CFF00BF1037BD4680BDA9
:100D300000300140FD0B000880B586B000AF0A4AC4
:100D40003B1D07CA83E8070002233B7401237B7421
:100D50000A23BB74054B7B613B1D184600F0DAFC8F
:100D600000BF1837BD4680BDA0250008C10C000893
:100D700080B500AF02220349034800F0EDFB00BF3D
:100D800080BD00BF800000206C00002080B500AF57
:100D9000FFF7A8FFFFF7D0FFFFF7EAFF024B034A78
:100DA0001A6000BF80BD00BFD8000020B10D000850
:100DB00080B582B000AF0C4B1B69002B0FD03B46B7
:100DC0001946094800F032FC3A78084B1A703B4645
:100DD00001331846FFF704FF054B064A1A6000BFAF
:100DE0000837BD4680BD00BF6C0000209100002088
:100DF000D8000020650B000880B584B000AF214BFF
:100E00001B789BB27B800023FB731E4B1B78E72B68
:100E100004D11D4BBB601D4B7B6003E01C4BBB60D2
:100E20001A4B7B608021B86801F08CF9154B1B7858
:100E30009BB27B80BB1C1946B86801F02FF9FB7B85
:100E40000133FB730F4B1B789AB27B889A4202D016
:100E5000FB7B092BEAD9FB7B092B07D8FF237B807F
:100E6000BB1C00221946B86801F09EF87A68802100
:100E7000B86801F035F9074B074A1A6000BF103710
:100E8000BD4680BD9100002000300140FD0B0008F0
:100E900000380040D8000020B10D000880B584B0B3
:100EA00000AF214B1B789BB27B800023FB731E4B52
:100EB0001B78E72B04D11D4BBB601D4B7B6003E00F
:100EC0001C4BBB601A4B7B608021B86801F03AF97B
:100ED000154B1B789BB27B80BB1C1946B86801F090
:100EE000DDF8FB7B0133FB730F4B1B789AB27B88D9
:100EF0009A4202D0FB7B092BEAD9FB7B092B07D84E
:100F000000237B80BB1C00221946B86801F04CF816
:100F10007A688021B86801F0E3F8074B074A1A6045
:100F200000BF1037BD4680BD910000200030014059
:100F3000FD0B000800380040D8000020B10D00086B
:100F400080B400AF034B044A1A6000BFBD4680BCAA
:100F5000704700BFD8000020F90D000880B400AF32
:100F6000034B044A1A6000BFBD4680BC704700BFF7
:100F7000D80000209D0E000880B582B000AF0C2381
:100F8000BB800823FB803B1D19461E4800F072FD04
:100F90000D23BB800823FB803B1D1946194800F038
:100FA00069FD0E23BB800823FB803B1D19461548B5
:100FB00000F060FD0F23BB800823FB803B1D19461A
:100FC000104800F057FD0B23BB800123FB803B1D25
:100FD00019460C4800F04EFD0923BB800123FB801D
:100FE0003B1D1946074800F045FD0823BB8001233F
:100FF000FB803B1D1946034800F03CFD00BF08374D
:10100000BD4680BD000C014080B586B000AF3A4AB5
:1010100007F1080307CA83E80700384B1B687B60A9
:10102000374A3B461268114619800233120C1A7077
:101030004E237B750023FB7553E001220B213148C1
:1010400000F08BFD012209212E4800F086FD0122CF
:1010500008212C4800F081FDFB7D07F118021344A4
:1010600013F8183C9BB200221946264800F075FD83
:101070000023BB752CE0BB7D07F11802134413F865
:10108000143C9BB219461F4800F04BFD0346002B51
:101090001BD100BFBB7D07F11802134413F8143CA9
:1010A0009BB21946174800F03CFD0346002BF1D0D7
:1010B000BA7D13465B001A44FB7D134407F1180206
:1010C000134413F8103C7B7505E0BB7D0133BB7501
:1010D000BB7D032BCFD97B7D4E2B06D1FB7D01330E
:1010E000FB75FB7D022BA8D900E000BF7B7D184675
:1010F0001837BD4680BD00BFAC250008B8250008E4
:10110000BC250008000C014080B485B000AF034648
:10111000FB710023FB7310E00023BB7304E0BB7B77
:10112000DBB20133DBB2BB73BB7BDBB2632BF6D923
:10113000FB7BDBB20133DBB2FB73FB7BDBB2FA7907
:101140009A42E9D800BF1437BD4680BC7047000002
:1011500080B500AF01220521064800F0FEFC3220D8
:10116000FFF7D2FF00220521024800F0F6FC00BF85
:1011700080BD00BF000C014080B500AF164B1B784E
:101180000F2B13D9154B1B78022B0FD8124B0022B3
:101190001A70124B1B780133DAB2104B1A700F4BD6
:1011A0001B780021184600F07DF912E00A4B1B78ED
:1011B0000F2B0ED9094B1B78032B0AD100F0BAF97B
:1011C000802000F075F8044B00221A70034B0022B7
:1011D0001A7000BF80BD00BF940000209500002061
:1011E00080B500AF1420FFF78FFF2E4B04221A802A
:1011F0002C4B01225A802B492B4800F03BFC294BF9
:1012000005221A80274B01225A802649264800F0E1
:1012100031FC00220521244800F09FFC002204211B
:10122000214800F09AFC0F20FFF76EFF1D4B0A22A9
:101230001A801C4B01225A801A491C4800F01AFCE3
:10124000184B0B221A80174B01225A801549174858
:1012500000F010FC134B0C221A80124B01225A8012
:101260001049124800F006FC0E4B0F221A800D4B5D
:1012700001225A800B490D4800F0FCFB0520FFF7C6
:1012800043FF022000F014F8282000F011F8062097
:1012900000F00EF8802000F00BF80F2000F008F8A6
:1012A00000BF80BDE0000020000C014000080140AC
:1012B00080B582B000AF0346FB71002204213148A3
:1012C00000F04BFC002205212E4800F046FCFB7983
:1012D0001B11DBB203F00103DBB21A460A212A48D4
:1012E00000F03BFCFB795B11DBB203F00103DBB2E6
:1012F0001A460B21244800F030FCFB799B11DBB22D
:1013000003F00103DBB21A460C211F4800F025FC54
:10131000FB79DB09DBB21A460F211B4800F01DFCEC
:10132000FFF716FFFB7903F00103DBB21A460A212F
:10133000154800F012FCFB795B10DBB203F00103EF
:10134000DBB21A460B21104800F007FCFB799B101A
:10135000DBB203F00103DBB21A460C210A4800F0AD
:10136000FCFBFB79DB10DBB203F00103DBB21A46B6
:101370000F21054800F0F1FBFFF7EAFE00BF083738
:10138000BD4680BD000C01400008014080B582B020
:1013900000AF0346FB71FFF7EFFE01220421344842
:1013A00000F0DBFB00220521314800F0D6FBFB7981
:1013B0001B11DBB203F00103DBB21A460A212D48F0
:1013C00000F0CBFBFB795B11DBB203F00103DBB276
:1013D0001A460B21274800F0C0FBFB799B11DBB2BA
:1013E00003F00103DBB21A460C21224800F0B5FBE2
:1013F000FB79DB09DBB21A460F211E4800F0ADFB7A
:10140000FFF7A6FEFB7903F00103DBB21A460A21BF
:10141000184800F0A2FBFB795B10DBB203F001037C
:10142000DBB21A460B21134800F097FBFB799B10A7
:10143000DBB203F00103DBB21A460C210D4800F0C9
:101440008CFBFB79DB10DBB203F00103DBB21A4645
:101450000F21084800F081FBFFF77AFE064B1B784E
:101460000133DAB2044B1A7000BF0837BD4680BDA5
:10147000000C0140000801409400002080B582B0BB
:1014800000AF786006E07B685A1C7A601B781846CB
:10149000FFF77CFF7B681B78002BF4D100BF083777
:1014A000BD4680BD80B582B000AF03460A46FB71E1
:1014B0001346BB71BB790F2B33D8FB79032B30D884
:1014C000FB79032B26D801A252F823F0DD14000883
:1014D000EB140008F914000807150008BB79803BDD
:1014E000DBB21846FFF7E4FE15E0BB79403BDBB208
:1014F0001846FFF7DDFE0EE0BB79703BDBB2184605
:10150000FFF7D6FE07E0BB79303BDBB21846FFF7AA
:10151000CFFE00E000BF054AFB791370044ABB7997
:10152000137000BF0837BD4680BD00BF9500002086
:101530009400002080B500AF0120FFF7B9FE044BF6
:1015400000221A70034B00221A7000BF80BD00BF3A
:10155000940000209500002080B485B000AFF860B2
:10156000B9607A60BB68002B01D103230FE0FB68F0
:10157000BA681A60FB68BA685A60FB68BA689A6011
:10158000FB687A68DA60FB6800221A610223184659
:101590001437BD4680BC704780B485B000AFF8609A
:1015A0003B1D83E80600FB68002B0BD0FB685B68E3
:1015B000002B07D0FB681B68002B03D0FB689B68DF
:1015C000002B01D103232CE0FB681A69FB68DB6860
:1015D0009A4201D3002324E0FB685B681A463B1D56
:1015E000186810601B791371FB685968FB681868EC
:1015F000FB68DA6813469B001344053B0344994299
:1016000004D1FB681A68FB685A6004E0FB685B68F9
:101610005A1DFB685A60FB681B695A1CFB681A61FB
:10162000022318461437BD4680BC704780B483B08F
:1016300000AF786039607B68002B0BD07B685B68FB
:10164000002B07D07B681B68002B03D07B689B684E
:10165000002B01D1032329E07B681B69002B01D1FA
:10166000012323E07B689A683B681168196012794E
:101670001A717B6899687B6818687B68DA6813461A
:101680009B001344053B0344994204D17B681A68CC
:101690007B689A6004E07B689B685A1D7B689A604F
:1016A0007B681B695A1E7B681A61022318460C3737
:1016B000BD4680BC7047000080B485B000AF0346D3
:1016C0000A46FB711346BB71FB799B08FB73FB79E0
:1016D00003F00303DBB29B00BB730D4AFB7B0233B9
:1016E00052F82330BA7B0F2101FA02F2D2431A409A
:1016F000B979BB7B01FA03F318460549FB7B02432A
:10170000023341F8232000BF1437BD4680BC704728
:101710000000014080B584B000AF78607B681B7A20
:101720009BB2BB810423FB817B685B6807F10C02E1
:101730001146184600F09EF97B681A787B685B7A40
:1017400019461046FFF7B8FF3B4B9B687A68127842
:10175000114601228A40D2431146374A0B4093601A
:10176000354BDB687A681278114601228A40D243F1
:101770001146314A0B40D3607B681B7B002B03D0A2
:101780007B681B7B022B0AD12B4B9B687A681278F3
:10179000114601228A401146274A0B4393607B6819
:1017A0001B7B012B03D07B681B7B022B0AD1224BB6
:1017B000DB687A681278114601228A4011461E4A77
:1017C0000B43D3607B689A7A7B689B7B19461046F3
:1017D00000F026FA7B681B7819467B681B69174A5C
:1017E00042F821307B685B7B012B10D1124B1B68C8
:1017F0007A681278114601228A4011460E4A0B433C
:1018000013607B689B7A184600F0CBF910E00A4B16
:101810001B687A681278114601228A40D243114629
:10182000054A0B4013607B689B7A184600F0DCF990
:1018300000BF1037BD4680BD00040140E400002019
:1018400080B500AF054B5B69044A43F00103536167
:10185000034B1B68984700BF80BD00BF00040140D8
:10186000E400002080B500AF054B5B69044A43F0FB
:1018700002035361034B5B68984700BF80BD00BF04
:1018800000040140E400002080B500AF054B5B6917
:10189000044A43F004035361034B9B68984700BF1D
:1018A00080BD00BF00040140E400002080B500AF0F
:1018B000054B5B69044A43F008035361034BDB6843
:1018C000984700BF80BD00BF00040140E400002035
:1018D00080B500AF054B5B69044A43F010035361C8
:1018E000034B1B69984700BF80BD00BF0004014047
:1018F000E400002080B500AF284B5B695B0903F072
:101900000103012B08D1254B5B69244A43F02003D6
:101910005361234B5B699847204B5B699B0903F03C
:101920000103012B08D11D4B5B691C4A43F04003A6
:1019300053611B4B9B699847184B5B69DB0903F0AC
:101940000103012B08D1154B5B69144A43F0800356
:101950005361134BDB699847104B5B691B0A03F01B
:101960000103012B08D10D4B5B690C4A43F48073D2
:1019700053610B4B1B6A9847084B5B695B0A03F08A
:101980000103012B08D1054B5B69044A43F4007342
:101990005361034B5B6A984700BF80BD0004014060
:1019A000E400002080B500AF304B5B699B0A03F078
:1019B0000103012B08D12D4B5B692C4A43F4806352
:1019C00053612B4B9B6A9847284B5B69DB0A03F0FA
:1019D0000103012B08D1254B5B69244A43F40063C2
:1019E0005361234BDB6A9847204B5B691B0B03F069
:1019F0000103012B08D11D4B5B691C4A43F4805342
:101A000053611B4B1B6B9847184B5B695B0B03F0D7
:101A10000103012B08D1154B5B69144A43F40053B1
:101A20005361134B5B6B9847104B5B699B0B03F047
:101A30000103012B08D10D4B5B690C4A43F4804331
:101A400053610B4B9B6B9847084B5B69DB0B03F0B7
:101A50000103012B08D1054B5B69044A43F40043A1
:101A60005361034BDB6B984700BF80BD000401400E
:101A7000E400002080B485B000AF786039603B6836
:101A80001B88072B01D87B6801E07B680433FB606F
:101A90003B681B88DBB203F00703DBB29B00FB72E1
:101AA000FB681B68FA7A0F2101FA02F2D2431A404E
:101AB000FB681A603B685B88102B14D1FB681B68BD
:101AC000FA7A082101FA02F21A43FB681A607B686D
:101AD000DB683A681288114601228A40D2431A40D4
:101AE0007B68DA6018E0FB681B683A685288114628
:101AF000FA7A01FA02F21A43FB681A603B685B88C3
:101B0000082B09D17B68DB683A68128811460122EC
:101B10008A401A437B68DA6000BF1437BD4680BC38
:101B2000704780B485B000AF78600B467B807B68DF
:101B30009B687A88012101FA02F21A407B8822FA16
:101B400003F3002B14BF01230023DBB2FB73FB7BE9
:101B500018461437BD4680BC704780B483B000AFD0
:101B600078600B467B8013467B707B78012B09D114
:101B70007B68DB687A88012101FA02F21A437B68EC
:101B8000DA6009E07B68DB687A88012101FA02F2F9
:101B9000D2431A407B68DA6000BF0C37BD4680BC78
:101BA000704780B485B000AF0346FB71FB795B09D9
:101BB000FB73FB7B9B0003F1604303F561431A68F1
:101BC000FB7903F01F03012101FA03F31946FB7BA4
:101BD0009B0003F1604303F561430A431A6000BFB1
:101BE0001437BD4680BC704780B485B000AF034653
:101BF000FB71FB795B09FB73FB7903F01F03012287
:101C000002FA03F1FB7B9A00044B13440A461A6064
:101C100000BF1437BD4680BC704700BF80E100E0C4
:101C200080B485B000AF03460A46FB711346BB7112
:101C3000FB799B08FB73FB7903F00303DBB2DB004A
:101C4000DBB20433BB73FB7B9B0003F1604303F502
:101C500064431A68BB7B0F2101FA03F3DB43194687
:101C6000FB7B9B0003F1604303F564430A401A6069
:101C7000FB7B9B0003F1604303F564431A68BB7967
:101C800003F00F01BB7B01FA03F31946FB7B9B00BA
:101C900003F1604303F564430A431A6000BF14373D
:101CA000BD4680BC7047000080B483B000AF002305
:101CB0007B600D4B5B689B0803F00303012B07D08F
:101CC000012B02D3022B06D008E0084B7B6005E015
:101CD000074B7B6002E0064B7B6000BF7B681846C9
:101CE0000C37BD4680BC70470010024000127A00DD
:101CF0000024F40080B586B000AF78607B686B4A42
:101D000093420CD10023FB750423FB740523BB75A0
:101D100006233B7507237B75654BFB600BE00123B6
:101D2000FB750C23FB740D23BB750E233B750F2332
:101D30007B75604BFB60FB7D5F4A1B0113441B8876
:101D4000042B59D1BB7D9BB23B8109237B8107F1D9
:101D500008031946F868FFF78DFE7B7D9BB23B8137
:101D600009237B8107F108031946F868FFF782FE13
:101D7000FB7D514A1B01134402331B88002B08D002
:101D8000FB7D4D4A1B01134402331B88B3F5806F62
:101D90000AD13B7D9BB23B8104237B8107F1080381
:101DA0001946F868FFF766FEFB7D434A1B011344A2
:101DB0000C331B88002B0BD1FB7C9BB23B81042393
:101DC0007B8107F108031946F868FFF753FE69E0C5
:101DD000FB7D394A1B0113440C331B88042B61D152
:101DE000FB7C9BB23B8109237B8107F108031946E9
:101DF000F868FFF73FFE55E0BB7D9BB23B810423B3
:101E00007B8107F108031946F868FFF733FEFB7D75
:101E1000294A1B01134402331B88002B08D0FB7D89
:101E2000254A1B01134402331B88B3F5806F0AD186
:101E30007B7D9BB23B8104237B8107F1080319461C
:101E4000F868FFF717FEFB7D1B4A1B0113440233A2
:101E50001B88002B08D0FB7D174A1B01134402335B
:101E60001B88B3F5404F0AD13B7D9BB23B810923D0
:101E70007B8107F108031946F868FFF7FBFDFB7D3E
:101E80000D4A1B0113440C331B88002B0AD1FB7C29
:101E90009BB23B8104237B8107F108031946F86854
:101EA000FFF7E8FD00BF1837BD4680BD0030014098
:101EB00000080140000C01409800002090B583B05C
:101EC00000AF786039607B68344A93420ED1344B5E
:101ED0009B69334A43F480539361324A3B6814460A
:101EE000186859689A68DB680FC40FE02C4BDB69EF
:101EF0002B4A43F48043D3612A4B3A6803F1100420
:101F00001346186859689A68DB680FC47B6800221A
:101F10001A607B681B683A6851883A6812880A43DD
:101F200091B23A68D2880A4391B23A6892880A43D9
:101F300091B23A68D2890A4391B23A6812890A4347
:101F400091B23A6852890A4392B21A437B681A6086
:101F50003B689B89B3F5407F04D03B689B89B3F510
:101F6000007F07D17B681B683A6892891A437B68B7
:101F70001A6006E07B685B683A6892891A437B685E
:101F80005A607B681B6843F040027B681A6078687F
:101F9000FFF7B0FE00BF0C37BD4690BD00300140DA
:101FA000001002409800002080B487B000AFF860B5
:101FB000B9601346FB71FB68154A934214BF0123B5
:101FC0000023DBB2FB75FB79002B06D100BFFB6859
:101FD0009B6803F00203002BF9D0FB7D0D4A1B0127
:101FE000134402331B88002B08D0FB7D094A1B01D8
:101FF000134402331B88B3F5404F04D1BB681B88E0
:102000001A46FB68DA6000BF1C37BD4680BC7047CB
:10201000003001409800002080B487B000AFF86025
:10202000B9601346FB71FB681A4A934214BF01233F
:102030000023DBB2FB75FB79002B06D100BFFB68E8
:102040009B6803F00103002BF9D0FB7D124A1B01B2
:10205000134402331B88002B11D0FB7D0E4A1B0159
:10206000134402331B88B3F5004F08D0FB7D0A4AA6
:102070001B01134402331B88B3F5806F04D1FB6846
:10208000DB689AB2BB681A8000BF1C37BD4680BCB3
:10209000704700BF003001409800002080B483B03A
:1020A00000AF7860396000BF7B689B6803F0020373
:1020B000002BF9D03B681B881A467B68DA6000BFAA
:1020C0007B689B6803F00103002BF9D07B68DB6819
:1020D0009AB23B681A8000BF0C37BD4680BC70477F
:1020E00080B584B000AFF8600B467A60FB72FB6885
:1020F000114A93420BD12320FFF753FDFB7A9B0932
:10210000DBB219460D4A7B6842F821300AE02420F0
:10211000FFF747FDFB7A9B09DBB21946084A7B684B
:1021200042F82130FB685A68FB7A1A43FB685A6010
:1021300000BF1037BD4680BD00300140B800002010
:10214000C400002080B582B000AF78600B46FB7001
:102150007B680A4A934203D12320FFF722FD02E065
:102160002420FFF71EFD7B685B68FA78D2431A4093
:102170007B685A6000BF0837BD4680BD0030014013
:1021800080B500AF1A4B5B6803F02003002B0ED024
:10219000174B9B6803F04003002B05D1144B9B6841
:1021A00003F02003002B02D0124B1B689847104B02
:1021B0005B6803F04003002B08D00D4B9B6803F0D5
:1021C0000103002B02D00B4B5B689847084B5B6800
:1021D00003F08003002B08D0054B9B6803F002033B
:1021E000002B02D0034B9B68984700BF80BD00BF07
:1021F00000300140B800002080B500AF1A4B5B688A
:1022000003F02003002B0ED0174B9B6803F0400314
:10221000002B05D1144B9B6803F02003002B02D048
:10222000124B1B689847104B5B6803F04003002B70
:1022300008D00D4B9B6803F00103002B02D00B4B21
:102240005B689847084B5B6803F08003002B08D05D
:10225000054B9B6803F00203002B02D0034B9B68E5
:10226000984700BF80BD00BF00380040C400002078
:1022700080B584B000AF78600023FB60FFF714FDE9
:10228000F860FA687B68B2FBF3F3FB60FB68184602
:102290001037BD4680BD000080B584B000AF7860C7
:1022A0000023FB737B68B3F1807F17D200F02EF818
:1022B0000E4A7B6853600D4B00229A600B4B1B68E3
:1022C00023F00602094B1B68084913430B60074BB8
:1022D0001B68064A43F00603136001E00123FB7309
:1022E000FB7B18461037BD4680BD00BF10E000E004
:1022F00080B400AF044B1B68034A43F00103136032
:1023000000BFBD4680BC704710E000E080B400AF65
:10231000044B1B68034A23F00103136000BFBD4652
:1023200080BC704710E000E090B589B000AF7860E5
:1023300039600023FB774FF000034FF00004C7E93A
:1023400004340023FB601948FFF792FFF8607B68B4
:10235000FA6802FB03F34FF00004C7E90434D7E93D
:1023600004346FF07F414FF00002A24208BF99424F
:1023700015D33B68002B12D03B691846FFF78CFF42
:102380000B4A3B6813600B4B01221A700A4B1B6807
:10239000094A43F002031360FFF7AAFF01E001239B
:1023A000FB77FB7F18462437BD4690BD40420F00A7
:1023B000D0000020D400002010E000E080B500AF85
:1023C0000A4B1B78002B01D1FFF7A0FF084B1B68BD
:1023D000002B02D0064B1B689847064B1B68054A2A
:1023E00023F48033136000BF80BD00BFD400002001
:1023F000D000002010E000E070B500250C4E0D4C20
:10240000A41BA410A54209D100F022F800250A4E11
:102410000A4CA41BA410A54205D170BD56F8253066
:1024200098470135EEE756F8253098470135F2E731
:10243000C0250008C0250008C0250008C4250008E4
:10244000034611F8012B03F8012B002AF9D170473C
:10245000F8B500BFF8BC08BC9E467047F8B500BF91
:08246000F8BC08BC9E46704761
:10246800456E7465722049443A000000494473205F
:10247800636F756E742065786365656465640000D4
:102488006D61696E206D656E75203D3E20272A2797
:10249800000000004944204164646564207375634A
:1024A8006365737366756C6C79000000494420613C
:1024B8006C72656164792065786973740000000046
:1024C80049442044656C657465642100494420448E
:1024D8006F65736E27742045786973740000000077
:1024E800494473204C69737420456D7074790000F9
:1024F800507265737320272A27000000746F204CE0
:102508006F67696E000000005573657249443A00B0
:1025180050617373776F72643A00000057726F6E80
:1025280067204C6F67696E20496E666F0000000077
:1025380054727920616761696E20696E000000003D
:102548003130207365636F6E64730000312E41640F
:1025580064206E657720494400000000322E5265E1
:102568006D6F766520616E2049440000332E5368F4
:102578006F7720494473204C69737400272A2720F9
:10258800746F206C6F676F75740000004C6973740A
:1025980020456D70747900000400000000080140B7
:1025A80004000A0033323136353439383723302ABB
:0825B8000C0D0E0F0B090800C9
:0425C00055010008B9
:0425C40031010008D9
:1025C8003132333400303030300031343832003674
:1025D800363636000100000031323300303030002A
:1025E800363636000000000000000000030000003E
:040000050800019559
:00000001FF
