S01D0000476174655F456E7472616E63655F4543555F5372632E7372656334
S11300000C942A000C9447000C9447000C9447006D
S11300100C9447000C9447000C9447000C94470040
S11300200C9447000C9447000C9447000C94470030
S11300300C9447000C94D2030C94F9030C94200400
S11300400C9447000C9447000C9447000C94470010
S11300500C94470011241FBECFE5D8E0DEBFCDBF0E
S113006010E0A0E6B0E0E4E1F9E002C005900D92F2
S1130070A638B107D9F720E0A6E8B0E001C01D9288
S1130080AF39B207E1F70E9447040C9488040C943A
S113009000000E94CA000895E0919B00F0919C002A
S11300A00995089508958FEA90E090939C008093B9
S11300B09B000895CF93DF93CDB7DEB729970FB692
S11300C0F894DEBF0FBECDBF198280E895E2A0E0B0
S11300D0B0E08B839C83AD83BE8388E18A8386E012
S11300E08F8319861886CE0101960E94090367E85A
S11300F070E080E80E94A6030E94620329960FB66E
S1130100F894DEBF0FBECDBFDF91CF9108958091EB
S1130110860090E061E089579F4F0E94810380919F
S1130120860090E061E089579F4F0E946C038091A4
S113013086008F5F80938600833081F4109286005E
S11301400E94FF0187E890E00E94A9020E946203D6
S113015083E590E090939C0080939B0008950E9417
S1130160FF0164E080E00E94D50180E690E00E94F7
S1130170A90260E082E00E94D50189E690E00E9435
S1130180A9020E94660382E590E090939C0080930C
S11301909B0008950E945A000E9479018FEA90E022
S11301A090939C0080939B000895CF93DF9300D09D
S11301B0CDB7DEB719820BC01A8203C09A819F5F44
S11301C09A839A819436D0F399819F5F9983998118
S11301D0981790F30F900F90DF91CF91089541E01D
S11301E061E089E390E00E94EF0282E30E94D5007F
S11301F040E061E089E390E00E94EF020895CF932C
S1130200C82F40E060E089E390E00E94EF0240E004
S113021061E089E390E00E94EF024C2F407150E0CE
S113022055954795559547955595479555954795B2
S113023062E089E390E00E94EF024C2F407250E0AC
S11302405595479555954795559547955595479592
S11302505595479563E089E390E00E94EF024C2FA7
S1130260407450E0042E452F000C441F550B000C25
S1130270441F551F64E089E390E00E94EF024C2F75
S1130280441F4427441F65E089E390E00E94EF0285
S11302900E94EF004C2F417062E089E390E00E94DD
S11302A0EF024C2F427050E05595479563E089E387
S11302B090E00E94EF024C2F447050E05595479512
S11302C05595479564E089E390E00E94EF02C87079
S11302D04C2F50E05595479555954795559547951D
S11302E065E089E390E00E94EF020E94EF00CF9165
S11302F008951F93CF93DF9384E10E94D500CDE945
S1130300D0E0188211E01983BE0189E390E00E94D5
S1130310B60218831983BE0189E390E00E94B602F5
S113032040E061E089E390E00E94EF0240E060E099
S113033089E390E00E94EF028FE00E94D50082E002
S113034088831983BE0189E390E00E94B60283E0AA
S113035088831983BE0189E390E00E94B60284E099
S113036088831983BE0189E390E00E94B60285E088
S113037088831983BE0189E390E00E94B60285E078
S11303800E94D50082E00E94FF0088E20E94FF00E4
S113039086E00E94FF0080E80E94FF008FE00E9438
S11303A0FF00DF91CF911F910895CF93DF936031C8
S11303B018F5843008F5D62FC82F813059F028F06D
S11303C0823069F0833081F013C080E8860F0E9488
S11303D0FF000EC080EC860F0E94FF0009C080E978
S11303E0860F0E94FF0004C080ED860F0E94FF006C
S11303F0C0938A00D0938B00DF91CF91089581E060
S11304000E94FF0010928B0010928A000895909130
S11304108B00903168F080918A00833048F4109208
S11304208B008F5F80938A0060E00E94D50108955D
S1130430903168F080918A00833049F40E94FF0172
S113044080E80E94FF0010928B0010928A000895A9
S1130450CF93C82F0E94070241E060E089E390E057
S11304600E94EF0240E061E089E390E00E94EF0225
S11304704C2F407150E055954795559547955595A6
S113048047955595479562E089E390E00E94EF0215
S11304904C2F407250E05595479555954795559585
S11304A04795559547955595479563E089E390E0C1
S11304B00E94EF024C2F407450E0042E452F000C94
S11304C0441F550B000C441F551F64E089E390E062
S11304D00E94EF024C2F441F4427441F65E089E328
S11304E090E00E94EF020E94EF004C2F417062E006
S11304F089E390E00E94EF024C2F427050E0559542
S1130500479563E089E390E00E94EF024C2F44702A
S113051050E0559547955595479564E089E390E0FB
S11305200E94EF02C8704C2F50E0559547955595A1
S113053047955595479565E089E390E00E94EF0261
S11305400E94EF0080918B008F5F80938B00CF918E
S11305500895CF93DF93EC0103C021960E942802F3
S113056088818111FACFDF91CF910895DC01FB01DD
S11305708181813079F411962C91119781E090E07A
S1130580008002C0880F991F0A94E2F7822B11960B
S11305908C93089511968C91119721E030E000809E
S11305A002C0220F331F0A94E2F7209528231196E4
S11305B02C9311978181823089F480B78E7F80BF1C
S11305C012962C91129781E090E0008002C0880F6F
S11305D0991F0A94E2F7822B12968C930895FC01DA
S11305E0413059F4228181E090E002C0880F991FC4
S11305F06A95E2F7822B82830895928121E030E0AC
S113060002C0220F331F6A95E2F720952923228323
S11306100895CF93DF93EC0189E0FE01A2E9B0E0F5
S113062001900D928A95E1F78881882321F0813029
S113063021F4A8E003C0A0E101C0A2E02A813B812B
S11306404C815D81B0E00E946E049B01AC0160E0CE
S113065072E18AE790E00E944C042150310921158F
S113066080E1380758F529B92F3F310521F018F0FA
S1130670832F8F7080BD8881823061F0813029F4AE
S11306808BB182608BB990E006C08BB18D7F8BB942
S113069090E001C090E88885892B9F81982B8E81FA
S11306A0873029F4892F866094E09AB901C0892B98
S11306B0806880BD89818AB980E001C081E0DF91D2
S11306C0CF9108958AB1877E8AB908959AB18091AD
S11306D09300892B8AB90895611102C05D9BFECFF6
S11306E020919800273049F42AB12E7F2AB93AB1D3
S11306F0FC0121812170232B2AB9FC0180818CB952
S11307000895611102C05F9BFECF5C9919C05A998C
S113071019C05B9919C0FC011182108220919800C4
S1130720273039F42AB1227030E0359527951082AC
S113073021832CB130E0FC013183208380E00895D3
S113074081E0089581E0089581E0089561157105BF
S113075029F19FB790689FBF803471F0803819F0F9
S11307608032F1F412C08AB180688AB97093910022
S11307706093900080E008958AB180648AB9709390
S11307808F0060938E0080E008958AB180628AB9F8
S113079070938D0060938C0080E0089581E008954B
S11307A081E008951F920F920FB60F9211242F9398
S11307B03F934F935F936F937F938F939F93AF93E5
S11307C0BF93EF93FF93E0919000F091910009950E
S11307D0FF91EF91BF91AF919F918F917F916F9115
S11307E05F914F913F912F910F900FBE0F901F90EB
S11307F018951F920F920FB60F9211242F933F93C7
S11308004F935F936F937F938F939F93AF93BF9314
S1130810EF93FF93E0918C00F0918D000995FF9187
S1130820EF91BF91AF919F918F917F916F915F9164
S11308304F913F912F910F900FBE0F901F901895DD
S11308401F920F920FB60F9211242F933F934F9341
S11308505F936F937F938F939F93AF93BF93EF9324
S1130860FF93E0918E00F0918F000995FF91EF9135
S1130870BF91AF919F918F917F916F915F914F91B4
S11308803F912F910F900FBE0F901F9018950E94CB
S113089049000E944C00FDCFA1E21A2EAA1BBB1BEB
S11308A0FD010DC0AA1FBB1FEE1FFF1FA217B30738
S11308B0E407F50720F0A21BB30BE40BF50B661F4E
S11308C0771F881F991F1A9469F760957095809512
S11308D090959B01AC01BD01CF0108950E9479045C
S11308E0A59F900DB49F900DA49F800D911D112480
S11308F00895A29FB001B39FC001A39F700D811DF5
S11309001124911DB29F700D811D1124911D089514
S1070910F894FFCF85
S113091457656C636F6D652100506C656173652068
S1130924656E746572207468652033206469676930
S109093474732049440025
S9030000FC
