:100000000C942A000C9447000C9447000C94470071
:100010000C9447000C9447000C9447000C94470044
:100020000C9447000C9447000C94B2050C94D9052D
:100030000C9401050C94DC060C9403070C942A071D
:100040000C9447000C9447000C9447000C94470014
:100050000C94470011241FBECFE5D8E0DEBFCDBF12
:1000600010E0A0E6B0E0E8E2FFE002C005900D92EB
:10007000A43AB107D9F720E0A4EAB0E001C01D928C
:10008000A43DB207E1F70E9451070C9492070C942B
:1000900000000E94FB010895E091C700F091C800A4
:1000A000099508950895CF93DF93CDB7DEB72997CB
:1000B0000FB6F894DEBF0FBECDBF198280E895E27F
:1000C000A0E0B0E08B839C83AD83BE8388E18A830C
:1000D00086E08F8319861886CE0101960E9413064A
:1000E00060E870E080E80E94B0060E946C062996E5
:1000F0000FB6F894DEBF0FBECDBFDF91CF9108954C
:100100008091A90090E061E085559F4F0E948B0689
:100110008091A90090E061E085559F4F0E9476068E
:10012000E091A900EF5FE093A900E33071F4F0E003
:10013000E555FF4F10821092A9000E946C068EE9CF
:1001400091E09093C8008093C7000895CF93DF9308
:10015000CDB7DEB72B970FB6F894DEBF0FBECDBF7D
:10016000198280E28A8388E08B8384E08C8380E834
:100170008F838EEE91E099878887CE0101960E9449
:10018000C50481E08B8783E08A87BE01665F7F4F6D
:1001900086E390E00E94EB032B960FB6F894DEBF47
:1001A0000FBECDBFDF91CF9108958091A4009091B3
:1001B000A500A091A600B091A700803A9F40A1059C
:1001C000B10581F41092A4001092A5001092A6002F
:1001D0001092A70081E891E09093C8008093C70037
:1001E0000E949B058091A4009091A500A091A6007B
:1001F000B091A7000196A11DB11D8093A40090931A
:10020000A500A093A600B093A70008958091A80030
:10021000811106C061E083EA90E00E94F00406C00C
:1002200090E061E086559F4F0E94F0048091A80005
:100230008F5F8093A800843091F40E949B051092F8
:10024000A80082E08093AF0080E00E94AA050E948F
:10025000A00582E590E09093C8008093C7000895C0
:10026000CF93DF9300D000D01F92CDB7DEB785EDDE
:1002700090E00E94AD0585E0E0E6F0E0DE01119639
:1002800001900D928A95E1F78AEF0E94A705CE01B1
:1002900001960E9428050E949B050F900F900F90D9
:1002A0000F900F90DF91CF9108950E94340364E086
:1002B00081E00E940A0387E690E00E94DE0380E06E
:1002C0000E94AA050E94A00582E590E09093C800D4
:1002D0008093C70008950E94340363E081E00E9488
:1002E0000A0385E690E00E94DE0380E00E94AA05F2
:1002F0000E94A00582E590E09093C8008093C7001B
:1003000008951092AF000E94340364E080E00E94E0
:100310000A0381E790E00E94DE0360E082E00E9431
:100320000A038AE790E00E94DE030E94700682E5DD
:1003300090E09093C8008093C70008950E94340312
:1003400064E081E00E940A0387E990E00E94DE03F6
:1003500081E08093AF0063E086E390E00E943E047A
:1003600080E00E94AA050E94A00582E590E090939B
:10037000C8008093C7000895CF93DF931F92CDB735
:10038000DEB787EE8983CE0101960E94F804809142
:10039000AA008823C9F01092AA0089818F3F39F4FE
:1003A00085E591E09093C8008093C70006C08BE676
:1003B00091E09093C8008093C700198261E0CE015C
:1003C00001960E94F00406C08981873E19F481E0FD
:1003D0008093AA000F90DF91CF9108958091AF0094
:1003E000813019F0823021F008950E9406010895AD
:1003F0000E94BC0108950E9453000E94A6000E9422
:10040000AE020E94300181E891E09093C800809391
:10041000C7000895CF93DF9300D0CDB7DEB7198220
:100420000BC01A8203C09A819F5F9A839A81943687
:10043000D0F399819F5F99839981981790F30F90DA
:100440000F90DF91CF91089541E061E089E390E062
:100450000E94240482E30E940A0240E061E089E3F2
:1004600090E00E9424040895CF93C82F40E060E0FC
:1004700089E390E00E94240440E061E089E390E099
:100480000E9424044C2F407150E055954795559596
:100490004795559547955595479562E089E390E0D6
:1004A0000E9424044C2F407250E055954795559575
:1004B000479555954795559547955595479563E0CB
:1004C00089E390E00E9424044C2F407450E0042EF5
:1004D000452F000C441F550B000C441F551F64E0B2
:1004E00089E390E00E9424044C2F441F4427441FBA
:1004F00065E089E390E00E9424040E9424024C2FCE
:10050000417062E089E390E00E9424044C2F427025
:1005100050E05595479563E089E390E00E942404FC
:100520004C2F447050E0559547955595479564E09C
:1005300089E390E00E942404C8704C2F50E0559548
:100540004795559547955595479565E089E390E022
:100550000E9424040E942402CF9108951F93CF93F8
:10056000DF9384E10E940A02C9ECD0E0188211E016
:100570001983BE0189E390E00E94EB03188319837D
:10058000BE0189E390E00E94EB0340E061E089E373
:1005900090E00E94240440E060E089E390E00E9443
:1005A00024048FE00E940A0282E088831983BE013E
:1005B00089E390E00E94EB0383E088831983BE0106
:1005C00089E390E00E94EB0384E088831983BE01F5
:1005D00089E390E00E94EB0385E088831983BE01E4
:1005E00089E390E00E94EB0385E00E940A0282E02A
:1005F0000E94340288E20E94340286E00E943402A3
:1006000080E80E9434028FE00E943402DF91CF9193
:100610001F910895CF93DF93603118F5843008F56A
:10062000D62FC82F813059F028F0823069F08330FE
:1006300081F013C080E8860F0E9434020EC080EC67
:10064000860F0E94340209C080E9860F0E9434029E
:1006500004C080ED860F0E943402C093B000D09396
:10066000B100DF91CF91089581E00E943402109291
:10067000B1001092B00008959091B100903168F0EF
:100680008091B000833048F41092B1008F5F809366
:10069000B00060E00E940A030895903168F08091F4
:1006A000B000833049F40E94340380E80E94340291
:1006B0001092B1001092B0000895CF93C82F0E94FD
:1006C0003C0341E060E089E390E00E94240440E0C4
:1006D00061E089E390E00E9424044C2F407150E0D7
:1006E00055954795559547955595479555954795F2
:1006F00062E089E390E00E9424044C2F407250E0B5
:1007000055954795559547955595479555954795D1
:100710005595479563E089E390E00E9424044C2FAF
:10072000407450E0042E452F000C441F550B000C64
:10073000441F551F64E089E390E00E9424044C2F7D
:10074000441F4427441F65E089E390E00E9424048D
:100750000E9424024C2F417062E089E390E00E94E5
:1007600024044C2F427050E05595479563E089E38F
:1007700090E00E9424044C2F447050E0559547951A
:100780005595479564E089E390E00E942404C87081
:100790004C2F50E05595479555954795559547955C
:1007A00065E089E390E00E9424040E942402809185
:1007B000B1008F5F8093B100CF910895CF93DF9305
:1007C000EC0103C021960E945D0388818111FACF5C
:1007D000DF91CF910895DC01FB018181813079F4B3
:1007E00011962C91119781E090E0008002C0880F53
:1007F000991F0A94E2F7822B11968C930895119613
:100800008C91119721E030E0008002C0220F331F4D
:100810000A94E2F72095282311962C931197818151
:10082000823089F480B78E7F80BF12962C91129708
:1008300081E090E0008002C0880F991F0A94E2F7DF
:10084000822B12968C930895FC01413059F4228139
:1008500081E090E002C0880F991F6A95E2F7822B31
:1008600082830895928121E030E002C0220F331F7D
:100870006A95E2F72095292322830895FC0142819D
:1008800021E030E002C0220F331F6A95E2F72427EF
:10089000228308950F931F93CF93DF9300D0CDB79A
:1008A000DEB78031C9F585E0898311E01A83BE0186
:1008B0006F5F7F4F86E390E00E94EB0307E00983C0
:1008C0001A83BE016F5F7F4F86E390E00E94EB03C7
:1008D00084E089831A83BE016F5F7F4F86E390E0D7
:1008E0000E94EB0309831A83BE016F5F7F4F86E38B
:1008F00090E00E94EB0386E089831A82BE016F5F5D
:100900007F4F86E390E00E94EB0341E064E086E3E2
:1009100090E00E94240432C085E0898311E01A83AC
:10092000BE016F5F7F4F86E390E00E94EB0307E01C
:1009300009831A82BE016F5F7F4F86E390E00E94B9
:10094000EB0384E089831A82BE016F5F7F4F86E3E9
:1009500090E00E94EB0309831A82BE016F5F7F4F14
:1009600086E390E00E94EB0386E089831A83BE0150
:100970006F5F7F4F86E390E00E94EB030F900F9034
:10098000DF91CF911F910F910895FC011DB89DB18A
:10099000608181815481428133812681862B852B20
:1009A000842B832B822B892B8DB98EB190E08E7F87
:1009B0002581822B9EB1892B8EB98681803849F49E
:1009C0008FB780688FBF878190859093B3008093A5
:1009D000B20080810E944A048DB180648DB908956F
:1009E000FC0180818FB9611102C0779BFECF089511
:1009F000FC0120812FB9779BFECF2FB1FC01208312
:100A000008951F920F920FB60F9211242F933F93C8
:100A10004F935F936F937F938F939F93AF93BF9306
:100A2000EF93FF93E091B200F091B3000995FF912D
:100A3000EF91BF91AF919F918F917F916F915F9156
:100A40004F913F912F910F900FBE0F901F901895CF
:100A50000F931F93CF93DF9300D0CDB7DEB7FC0188
:100A6000892B09F454C08081883008F052C08181FC
:100A7000882339F0883029F0803419F0883409F05F
:100A80004AC08281882339F0803129F0803219F000
:100A9000803309F042C08381823008F040C08481F5
:100AA000882311F08230E9F58F0185E0ADECB0E0EC
:100AB00001900D928A95E1F713BEF80120818181A2
:100AC0009281822B892B83BF89B78C7F89BF99B78D
:100AD00023818481822B892B89BF8281882359F0CD
:100AE00083E0898381E08A83BE016F5F7F4F86E365
:100AF00090E00E94EB03F8018481823019F0838139
:100B0000813089F48FB780688FBF80E00DC081E0AD
:100B10000BC081E009C081E007C081E005C081E031
:100B200003C081E001C080E00F900F90DF91CF9172
:100B30001F910F91089583B7887F83BF80E0089548
:100B400093B78091CD00892B83BF80E008958CBF3F
:100B500080E0089582BF80E008959093CC00809358
:100B6000CB0008951F920F920FB60F9211242F936E
:100B70003F934F935F936F937F938F939F93AF9325
:100B8000BF93EF93FF93E091CB00F091CC000995D8
:100B9000FF91EF91BF91AF919F918F917F916F9155
:100BA0005F914F913F912F910F900FBE0F901F902B
:100BB00018951F920F920FB60F9211242F933F9307
:100BC0004F935F936F937F938F939F93AF93BF9355
:100BD000EF93FF938091B4009091B500A091B6007F
:100BE000B091B7000196A11DB11D8093B400909300
:100BF000B500A093B600B093B700E091D200F09199
:100C0000D3000995FF91EF91BF91AF919F918F9183
:100C10007F916F915F914F913F912F910F900FBEF8
:100C20000F901F901895CF93DF93EC0189E0FE01A0
:100C3000AEEBB0E001900D928A95E1F788818823B0
:100C400021F0813021F4A8E003C0A0E101C0A2E0BE
:100C50002A813B814C815D81B0E00E9478079B0135
:100C6000AC0160E072E18AE790E00E9456072150F3
:100C70003109211580E1380758F529B92F3F310591
:100C800021F018F0832F8F7080BD8881823061F051
:100C9000813029F48BB182608BB990E006C08BB1B2
:100CA0008D7F8BB990E001C090E88885892B9F816A
:100CB000982B8E81873029F4892F866094E09AB929
:100CC00001C0892B806880BD89818AB980E001C01C
:100CD00081E0DF91CF9108958AB1877E8AB9089526
:100CE0009AB18091BF00892B8AB90895611102C021
:100CF0005D9BFECF2091C400273049F42AB12E7F9E
:100D00002AB93AB1FC0121812170232B2AB9FC01B7
:100D100080818CB90895611102C05F9BFECF5C9900
:100D200019C05A9919C05B9919C0FC01118210822F
:100D30002091C400273039F42AB1227030E0359573
:100D40002795108221832CB130E0FC013183208370
:100D500080E0089581E0089581E0089581E008959C
:100D60006115710529F19FB790689FBF803471F0BC
:100D7000803819F08032F1F412C08AB180688AB9E3
:100D80007093BD006093BC0080E008958AB18064D8
:100D90008AB97093BB006093BA0080E008958AB16D
:100DA00080628AB97093B9006093B80080E00895BA
:100DB00081E0089581E008951F920F920FB60F927F
:100DC00011242F933F934F935F936F937F938F9350
:100DD0009F93AF93BF93EF93FF93E091BC00F0918B
:100DE000BD000995FF91EF91BF91AF919F918F91B8
:100DF0007F916F915F914F913F912F910F900FBE17
:100E00000F901F9018951F920F920FB60F921124FA
:100E10002F933F934F935F936F937F938F939F9302
:100E2000AF93BF93EF93FF93E091B800F091B900B7
:100E30000995FF91EF91BF91AF919F918F917F9114
:100E40006F915F914F913F912F910F900FBE0F9037
:100E50001F9018951F920F920FB60F9211242F9387
:100E60003F934F935F936F937F938F939F93AF9332
:100E7000BF93EF93FF93E091BA00F091BB00099507
:100E8000FF91EF91BF91AF919F918F917F916F9162
:100E90005F914F913F912F910F900FBE0F901F9038
:100EA00018950E9449000E944C00FDCFA1E21A2E25
:100EB000AA1BBB1BFD010DC0AA1FBB1FEE1FFF1FFE
:100EC000A217B307E407F50720F0A21BB30BE40B4E
:100ED000F50B661F771F881F991F1A9469F7609595
:100EE0007095809590959B01AC01BD01CF0108954F
:100EF0000E948307A59F900DB49F900DA49F800D25
:100F0000911D11240895A29FB001B39FC001A39F1A
:100F1000700D811D1124911DB29F700D811D112432
:080F2000911D0895F894FFCF24
:100F28000208000002494E56414C494420494421D8
:100F38000057656C636F6D652100506C6561736562
:100F480020656E7465722074686520332064696753
:100F58006974732049440050726F63657373696ED6
:040F6800672100E716
:00000001FF
