S01D0000476174655F456E7472616E63655F4543555F5372632E7372656334
S11300000C942A000C9447000C9447000C9447006D
S11300100C9447000C9447000C9447000C94470040
S11300200C9447000C9447000C9447000C94470030
S11300300C9421040C9411050C9438050C945F0560
S11300400C9447000C9447000C9447000C94470010
S11300500C94470011241FBECFE5D8E0DEBFCDBF0E
S113006010E0A0E6B0E0E2E9FBE002C005900D92EA
S1130070A439B107D9F720E0A4E9B0E001C01D928A
S1130080A13BB207E1F70E9486050C94C7050C94C6
S113009000000E9426010895E091AD00F091AE00A9
S11300A0099508950895CF93DF93CDB7DEB72997C7
S11300B00FB6F894DEBF0FBECDBF198280E895E27B
S11300C0A0E0B0E08B839C83AD83BE8388E18A8308
S11300D086E08F8319861886CE0101960E94480413
S11300E060E870E080E80E94E5040E94A10429967B
S11300F00FB6F894DEBF0FBECDBFDF91CF91089548
S11301008091950090E061E08A569F4F0E94C00460
S11301108091950090E061E08A569F4F0E94AB0465
S1130120E0919500EF5FE0939500E33071F4F0E027
S1130130EA56FF4F1082109295000E94A10480E1BC
S113014091E09093AE008093AD000895CF93DF9338
S1130150CDB7DEB72B970FB6F894DEBF0FBECDBF79
S1130160198280E28A8388E08B8384E08C8380E830
S11301708F8385ED90E099878887CE0101960E9450
S1130180EE0381E08B8783E08A87BE01665F7F4F41
S113019086E390E00E9414032B960FB6F894DEBF1A
S11301A00FBECDBFDF91CF9108958091940081114E
S11301B006C061E082E990E00E94190406C090E064
S11301C061E08B569F4F0E941904809194008F5FC9
S11301D080939400843041F41092940085EF90E071
S11301E09093AE008093AD0008950E945D0264E098
S11301F080E00E94330280E690E00E94070360E002
S113020082E00E94330289E690E00E9407030E9484
S1130210A50482E590E09093AE008093AD0008952C
S11302200E945D0264E081E00E94330286E890E06F
S11302300E94070363E086E390E00E94670382E57F
S113024090E09093AE008093AD0008950E94530017
S11302500E94A6000E94D70185EF90E09093AE0023
S11302608093AD000895CF93DF9300D0CDB7DEB770
S113027019820BC01A8203C09A819F5F9A839A8164
S11302809436D0F399819F5F99839981981790F35D
S11302900F900F90DF91CF91089541E061E089E3E1
S11302A090E00E944D0382E30E94330140E061E04C
S11302B089E390E00E944D030895CF93C82F40E056
S11302C060E089E390E00E944D0340E061E089E34F
S11302D090E00E944D034C2F407150E05595479596
S11302E055954795559547955595479562E089E30A
S11302F090E00E944D034C2F407250E05595479575
S113030055954795559547955595479555954795D1
S113031063E089E390E00E944D034C2F407450E069
S1130320042E452F000C441F550B000C441F551F71
S113033064E089E390E00E944D034C2F441F44275E
S1130340441F65E089E390E00E944D030E944D0143
S11303504C2F417062E089E390E00E944D034C2FE2
S1130360427050E05595479563E089E390E00E9420
S11303704D034C2F447050E055954795559547953E
S113038064E089E390E00E944D03C8704C2F50E074
S113039055954795559547955595479565E089E356
S11303A090E00E944D030E944D01CF9108951F9348
S11303B0CF93DF9384E10E943301CFEAD0E0188227
S11303C011E01983BE0189E390E00E9414031883AD
S11303D01983BE0189E390E00E94140340E061E0C8
S11303E089E390E00E944D0340E060E089E390E0FF
S11303F00E944D038FE00E94330182E088831983B9
S1130400BE0189E390E00E94140383E0888319838A
S1130410BE0189E390E00E94140384E08883198379
S1130420BE0189E390E00E94140385E08883198368
S1130430BE0189E390E00E94140385E00E94330129
S113044082E00E945D0188E20E945D0186E00E94D4
S11304505D0180E80E945D018FE00E945D01DF91F3
S1130460CF911F910895CF93DF93603118F58430B5
S113047008F5D62FC82F813059F028F0823069F062
S1130480833081F013C080E8860F0E945D010EC0A6
S113049080EC860F0E945D0109C080E9860F0E94EE
S11304A05D0104C080ED860F0E945D01C0939A0037
S11304B0D0939B00DF91CF91089581E00E945D016C
S11304C010929B0010929A00089590919B00903195
S11304D068F080919A00833048F410929B008F5FFB
S11304E080939A0060E00E9433020895903168F08E
S11304F080919A00833049F40E945D0280E80E9452
S11305005D0110929B0010929A000895CF93C82F1A
S11305100E94650241E060E089E390E00E944D039F
S113052040E061E089E390E00E944D034C2F40716C
S113053050E055954795559547955595479555954B
S1130540479562E089E390E00E944D034C2F40728E
S113055050E055954795559547955595479555952B
S113056047955595479563E089E390E00E944D03D4
S11305704C2F407450E0042E452F000C441F550BA3
S1130580000C441F551F64E089E390E00E944D0372
S11305904C2F441F4427441F65E089E390E00E94E8
S11305A04D030E944D014C2F417062E089E390E0BD
S11305B00E944D034C2F427050E05595479563E0DF
S11305C089E390E00E944D034C2F447050E0559510
S11305D047955595479564E089E390E00E944D0363
S11305E0C8704C2F50E055954795559547955595AE
S11305F0479565E089E390E00E944D030E944D0118
S113060080919B008F5F80939B00CF910895CF933F
S1130610DF93EC0103C021960E9486028881811138
S1130620FACFDF91CF910895DC01FB018181813004
S113063079F411962C91119781E090E0008002C02A
S1130640880F991F0A94E2F7822B11968C930895D0
S113065011968C91119721E030E0008002C0220FA6
S1130660331F0A94E2F72095282311962C931197AF
S11306708181823089F480B78E7F80BF12962C915D
S1130680129781E090E0008002C0880F991F0A94BD
S1130690E2F7822B12968C930895FC01413059F4B1
S11306A0228181E090E002C0880F991F6A95E2F7E9
S11306B0822B82830895928121E030E002C0220FD0
S11306C0331F6A95E2F72095292322830895FC01BC
S11306D0428121E030E002C0220F331F6A95E2F725
S11306E02427228308950F931F93CF93DF9300D081
S11306F0CDB7DEB78031C9F585E0898311E01A836F
S1130700BE016F5F7F4F86E390E00E94140307E011
S113071009831A83BE016F5F7F4F86E390E00E94D6
S1130720140384E089831A83BE016F5F7F4F86E3DD
S113073090E00E94140309831A83BE016F5F7F4F08
S113074086E390E00E94140386E089831A82BE0146
S11307506F5F7F4F86E390E00E94140341E064E002
S113076086E390E00E944D0332C085E0898311E066
S11307701A83BE016F5F7F4F86E390E00E941403EB
S113078007E009831A82BE016F5F7F4F86E390E022
S11307900E94140384E089831A82BE016F5F7F4F35
S11307A086E390E00E94140309831A82BE016F5FFE
S11307B07F4F86E390E00E94140386E089831A83C6
S11307C0BE016F5F7F4F86E390E00E9414030F9099
S11307D00F90DF91CF911F910F910895FC011DB8E7
S11307E09DB1608181815481428133812681862B30
S11307F0852B842B832B822B892B8DB98EB190E092
S11308008E7F2581822B9EB1892B8EB9868180387B
S113081049F48FB780688FBF8781908590939D003E
S113082080939C0080810E9473038DB180648DB994
S11308300895FC0180818FB9611102C0779BFECFBE
S113084008951F920F920FB60F9211242F933F9386
S11308504F935F936F937F938F939F93AF93BF93C4
S1130860EF93FF93E0919C00F0919D000995FF9117
S1130870EF91BF91AF919F918F917F916F915F9114
S11308804F913F912F910F900FBE0F901F9018958D
S1130890CF93DF93EC0189E0FE01A4EAB0E001907C
S11308A00D928A95E1F78881882321F0813021F423
S11308B0A8E003C0A0E101C0A2E02A813B814C81F1
S11308C05D81B0E00E94AD059B01AC0160E072E186
S11308D08AE790E00E948B0521503109211580E1BF
S11308E0380758F529B92F3F310521F018F0832F27
S11308F08F7080BD8881823061F0813029F48BB1A2
S113090082608BB990E006C08BB18D7F8BB990E08B
S113091001C090E88885892B9F81982B8E81873030
S113092029F4892F866094E09AB901C0892B8068E4
S113093080BD89818AB980E001C081E0DF91CF91D7
S113094008958AB1877E8AB908959AB18091A500E5
S1130950892B8AB90895611102C05D9BFECF209155
S1130960AA00273049F42AB12E7F2AB93AB1FC01F2
S113097021812170232B2AB9FC0180818CB908952F
S1130980611102C05F9BFECF5C9919C05A9919C0CE
S11309905B9919C0FC01118210822091AA002730B2
S11309A039F42AB1227030E03595279510822183DD
S11309B02CB130E0FC013183208380E0089581E094
S11309C0089581E0089581E008956115710529F184
S11309D09FB790689FBF803471F0803819F08032DF
S11309E0F1F412C08AB180688AB97093A30060934D
S11309F0A20080E008958AB180648AB97093A1004E
S1130A006093A00080E008958AB180628AB97093EF
S1130A109F0060939E0080E0089581E0089581E046
S1130A2008951F920F920FB60F9211242F933F93A4
S1130A304F935F936F937F938F939F93AF93BF93E2
S1130A40EF93FF93E091A200F091A3000995FF9129
S1130A50EF91BF91AF919F918F917F916F915F9132
S1130A604F913F912F910F900FBE0F901F901895AB
S1130A701F920F920FB60F9211242F933F934F930F
S1130A805F936F937F938F939F93AF93BF93EF93F2
S1130A90FF93E0919E00F0919F000995FF91EF91E3
S1130AA0BF91AF919F918F917F916F915F914F9182
S1130AB03F912F910F900FBE0F901F9018951F928A
S1130AC00F920FB60F9211242F933F934F935F937E
S1130AD06F937F938F939F93AF93BF93EF93FF9302
S1130AE0E091A000F091A1000995FF91EF91BF91D1
S1130AF0AF919F918F917F916F915F914F913F91B2
S1130B002F910F900FBE0F901F9018950E944900CF
S1130B100E944C00FDCFA1E21A2EAA1BBB1BFD01B3
S1130B200DC0AA1FBB1FEE1FFF1FA217B307E407C8
S1130B30F50720F0A21BB30BE40BF50B661F771F20
S1130B40881F991F1A9469F7609570958095909500
S1130B509B01AC01BD01CF0108950E94B805A59F7A
S1130B60900DB49F900DA49F800D911D11240895A4
S1130B70A29FB001B39FC001A39F700D811D1124DA
S1130B80911DB29F700D811D1124911D0895F8943B
S1050B90FFCF91
S1130B9257656C636F6D652100506C6561736520E8
S1130BA2656E7465722074686520332064696769B0
S1130BB274732049440050726F63657373696E677E
S1070BC22100E70023
S9030000FC
