S01D0000476174655F456E7472616E63655F4543555F5372632E7372656334
S11300000C942A000C9447000C9447000C9447006D
S11300100C942A070C9451070C9447000C94470045
S11300200C9447000C9447000C9451060C947806E9
S11300300C9433050C9454080C947B080C94A2087B
S11300400C9447000C9447000C9447000C94470010
S11300500C94470011241FBECFE5D8E0DEBFCDBF0E
S113006010E0A0E6B0E0E8E1F2E102C005900D92F4
S1130070A03AB107D9F720E0A0EAB0E001C01D9290
S1130080A53EB207E1F70E94C9080C940A090C9432
S113009000000E94F7010E947F000895E091DF00B4
S11300A0F091E0000995E091E100F091E2000995FA
S11300B0089583E790E09093E2008093E10008952F
S11300C008958AEF0E941A0449E550E068EB7BE04A
S11300D080E090E00E94110680E690E09093E200B8
S11300E08093E100089580EF0E941A040E940402A4
S11300F080E690E09093E2008093E10008950E94EE
S1130100EC0380E690E09093E2008093E100089590
S113011081E690E09093E2008093E10008958FE5FA
S113012091E09093E0008093DF0008950895CF93C9
S1130130DF93CDB7DEB729970FB6F894DEBF0FBEB5
S1130140CDBF198280E895E2A0E0B0E08B839C8368
S1130150AD83BE8388E18A8386E08F8319861886FF
S1130160CE0101960E948B0764EC70E080E80E9447
S113017028080E94E40729960FB6F894DEBF0FBE44
S1130180CDBFDF91CF9108958091A10090E061E00F
S11301908D559F4F0E9403088091A10090E061E07B
S11301A08D559F4F0E94EE07E091A100EF5FE09311
S11301B0A100E33071F4F0E0ED55FF4F108210928E
S11301C0A1000E94E4078CE791E09093E000809303
S11301D0DF000895CF93DF93CDB7DEB72B970FB62B
S11301E0F894DEBF0FBECDBF198280E28A8388E017
S11301F08B8384E08C8380E88F838AEE91E09987F7
S11302008887CE0101960E94F80481E08B8783E001
S11302108A87BE01665F7F4F86E390E00E941E04DA
S11302202B960FB6F894DEBF0FBECDBFDF91CF91F2
S113023008958091A000811106C061E08EE990E0EC
S11302400E94230506C090E061E08E559F4F0E94F6
S113025023058091A0008F5F8093A0008430A9F4CF
S11302600E94CD051092A00082E08093A7004FE881
S113027050E068EE73E080E090E00E94110686E9A9
S113028090E09093E0008093DF0008950E9435038E
S113029063E081E00E940B0380E690E00E94DF03AC
S11302A04FE850E068EE73E080E090E00E941106B1
S11302B086E990E09093E0008093DF000895109227
S11302C0A7000E94350364E080E00E940B038CE6E3
S11302D090E00E94DF0360E082E00E940B0385E768
S11302E090E00E94DF030E94E80786E990E0909383
S11302F0E0008093DF0008950E94350364E081E00C
S11303000E940B0382E990E00E94DF0381E0809366
S1130310A7004FE850E068EE73E080E090E00E94B0
S1130320110663E086E390E00E94710486E990E0A0
S11303309093E0008093DF0008950E94350364E009
S113034081E00E940B0382E690E00E94DF030E949A
S1130350880086E990E09093E0008093DF000895A0
S1130360CF93DF931F92CDB7DEB787EE898360E02A
S1130370CE0101960E942B058091A2008823D9F01A
S11303800E94CD051092A20089818F3F39F48DE936
S113039091E09093E0008093DF0006C086E491E052
S11303A09093E0008093DF00198261E0CE01019612
S11303B00E9423050BC08981873E41F460E0CE0191
S11303C001960E94230581E08093A2000F90DF91A3
S11303D0CF9108958091A700813019F0823021F0E7
S11303E008950E94190108950E94B00108950E9481
S11303F097000E94EA000E94AF028FE591E090937B
S1130400E0008093DF0008958FE591E09093E00091
S11304108093DF000895CF93DF9300D0CDB7DEB78C
S113042019820BC01A8203C09A819F5F9A839A81B2
S11304309436D0F399819F5F99839981981790F3AB
S11304400F900F90DF91CF91089541E061E089E32F
S113045090E00E94570482E30E940B0240E061E0B6
S113046089E390E00E9457040895CF93C82F40E099
S113047060E089E390E00E94570440E061E089E392
S113048090E00E9457044C2F407150E055954795D9
S113049055954795559547955595479562E089E358
S11304A090E00E9457044C2F407250E055954795B8
S11304B05595479555954795559547955595479520
S11304C063E089E390E00E9457044C2F407450E0AD
S11304D0042E452F000C441F550B000C441F551FC0
S11304E064E089E390E00E9457044C2F441F4427A2
S11304F0441F65E089E390E00E9457040E942502AE
S11305004C2F417062E089E390E00E9457044C2F25
S1130510427050E05595479563E089E390E00E946E
S113052057044C2F447050E0559547955595479581
S113053064E089E390E00E945704C8704C2F50E0B7
S113054055954795559547955595479565E089E3A4
S113055090E00E9457040E942502CF9108951F93B2
S1130560CF93DF9384E10E940B02C3EED0E01882A4
S113057011E01983BE0189E390E00E941E041883F0
S11305801983BE0189E390E00E941E0440E061E00B
S113059089E390E00E94570440E060E089E390E042
S11305A00E9457048FE00E940B0282E08883198323
S11305B0BE0189E390E00E941E0483E088831983CE
S11305C0BE0189E390E00E941E0484E088831983BD
S11305D0BE0189E390E00E941E0485E088831983AC
S11305E0BE0189E390E00E941E0485E00E940B0294
S11305F082E00E94350288E20E94350286E00E9471
S1130600350280E80E9435028FE00E943502DF91B6
S1130610CF911F910895CF93DF93603118F5843003
S113062008F5D62FC82F813059F028F0823069F0B0
S1130630833081F013C080E8860F0E9435020EC01B
S113064080EC860F0E94350209C080E9860F0E9463
S1130650350204C080ED860F0E943502C093A800C5
S1130660D093A900DF91CF91089581E00E943502D3
S11306701092A9001092A80008959091A9009031B9
S113068068F08091A800833048F41092A9008F5F2D
S11306908093A80060E00E940B030895903168F0F5
S11306A08091A800833049F40E94350380E80E94B9
S11306B035021092A9001092A8000895CF93C82F74
S11306C00E943D0341E060E089E390E00E9457040A
S11306D040E061E089E390E00E9457044C2F4071B0
S11306E050E055954795559547955595479555959A
S11306F0479562E089E390E00E9457044C2F4072D2
S113070050E0559547955595479555954795559579
S113071047955595479563E089E390E00E94570417
S11307204C2F407450E0042E452F000C441F550BF1
S1130730000C441F551F64E089E390E00E945704B5
S11307404C2F441F4427441F65E089E390E00E9436
S113075057040E9425024C2F417062E089E390E027
S11307600E9457044C2F427050E05595479563E022
S113077089E390E00E9457044C2F447050E0559553
S113078047955595479564E089E390E00E945704A6
S1130790C8704C2F50E055954795559547955595FC
S11307A0479565E089E390E00E9457040E94250282
S11307B08091A9008F5F8093A900CF910895CF9372
S11307C0DF93EC0103C021960E945E0388818111AE
S11307D0FACFDF91CF9108951F93CF93DF93CDB7D5
S11307E0DEB727970FB6F894DEBF0FBECDBF17E074
S11307F01E8381E08F83BE016A5F7F4F80E390E0B8
S11308000E941E04198388E48A8380E38B831D82FB
S11308101C8280EF0E942707CE0101960E94B20637
S113082027960FB6F894DEBF0FBECDBFDF91CF91F0
S11308301F9108950E94270780E00895DC01FB01C1
S11308408181813079F411962C91119781E090E0A7
S1130850008002C0880F991F0A94E2F7822B119638
S11308608C93089511968C91119721E030E00080CB
S113087002C0220F331F0A94E2F720952823119611
S11308802C9311978181823089F480B78E7F80BF49
S113089012962C91129781E090E0008002C0880F9C
S11308A0991F0A94E2F7822B12968C930895FC0107
S11308B0413059F4228181E090E002C0880F991FF1
S11308C06A95E2F7822B82830895928121E030E0D9
S11308D002C0220F331F6A95E2F720952923228351
S11308E00895FC01428121E030E002C0220F331F51
S11308F06A95E2F72427228308950F931F93CF93D9
S1130900DF9300D0CDB7DEB78031C9F585E08983A8
S113091011E01A83BE016F5F7F4F86E390E00E946F
S11309201E0407E009831A83BE016F5F7F4F86E3CD
S113093090E00E941E0484E089831A83BE016F5FE5
S11309407F4F86E390E00E941E0409831A83BE0150
S11309506F5F7F4F86E390E00E941E0486E08983E8
S11309601A82BE016F5F7F4F86E390E00E941E04EF
S113097041E064E086E390E00E94570432C085E0E1
S1130980898311E01A83BE016F5F7F4F86E390E095
S11309900E941E0407E009831A82BE016F5F7F4F25
S11309A086E390E00E941E0484E089831A82BE01DB
S11309B06F5F7F4F86E390E00E941E0409831A82D2
S11309C0BE016F5F7F4F86E390E00E941E0486E0C5
S11309D089831A83BE016F5F7F4F86E390E00E9494
S11309E01E040F900F90DF91CF911F910F910895E6
S11309F0FC011DB89DB160818181548142813381A4
S1130A002681862B852B842B832B822B892B8DB9D6
S1130A108EB190E08E7F2581822B9EB1892B8EB979
S1130A208681803849F48FB780688FBF878190852D
S1130A309093AB008093AA0080810E947D048DB1C5
S1130A4080648DB90895FC0180818FB9611102C061
S1130A50779BFECF0895611102C0779BFECF2FB123
S1130A60FC01208308951F920F920FB60F92112458
S1130A702F933F934F935F936F937F938F939F93A2
S1130A80AF93BF93EF93FF93E091AA00F091AB0073
S1130A900995FF91EF91BF91AF919F918F917F91B4
S1130AA06F915F914F913F912F910F900FBE0F90D7
S1130AB01F9018950F931F93CF93DF9300D0CDB75A
S1130AC0DEB7FC01892B09F454C08081883008F01A
S1130AD052C08181882339F0883029F0803419F09C
S1130AE0883409F04AC08281882339F0803129F0A2
S1130AF0803219F0803309F042C08381823008F0DB
S1130B0040C08481882311F08230E9F58F0185E0AB
S1130B10AEEBB0E001900D928A95E1F713BEF801B7
S1130B20208181819281822B892B83BF89B78C7F1D
S1130B3089BF99B723818481822B892B89BF8281C4
S1130B40882359F083E0898381E08A83BE016F5F43
S1130B507F4F86E390E00E941E04F8018481823076
S1130B6019F08381813089F48FB780688FBF80E06A
S1130B700DC081E00BC081E009C081E007C081E0C5
S1130B8005C081E003C081E001C080E00F900F90B8
S1130B90DF91CF911F910F91089583B7887F83BF11
S1130BA080E008958091AC009091AD00A091AE00DA
S1130BB0B091AF004091B6005091B7006091B80079
S1130BC07091B90084179507A607B70778F40196C2
S1130BD0A11DB11D8093AC009093AD00A093AE0015
S1130BE0B093AF0088B7826088BF08951092AC00BC
S1130BF01092AD001092AE001092AF000E94CD058D
S1130C00E091B000F091B100099508958CBF80E0A7
S1130C10089582BF80E008959093B3008093B2005A
S1130C200895CF92DF92EF92FF920F931F93CF9389
S1130C30DF9300D000D01F92CDB7DEB76B017C01EB
S1130C408A0183E0898388E08A831B8282E08D8322
S1130C501C828CE70E94060680E00E94090682ED51
S1130C6095E00E940C06C092B600D092B700E092C4
S1130C70B800F092B9001093B1000093B000CE0117
S1130C8001960E945A050F900F900F900F900F90AD
S1130C90DF91CF911F910F91FF90EF90DF90CF9054
S1130CA008951F920F920FB60F9211242F933F9322
S1130CB04F935F936F937F938F939F93AF93BF9360
S1130CC0EF93FF93E091B200F091B3000995FF9187
S1130CD0EF91BF91AF919F918F917F916F915F91B0
S1130CE04F913F912F910F900FBE0F901F90189529
S1130CF01F920F920FB60F9211242F933F934F938D
S1130D005F936F937F938F939F93AF93BF93EF936F
S1130D10FF938091BA009091BB00A091BC00B09168
S1130D20BD000196A11DB11D8093BA009093BB0034
S1130D30A093BC00B093BD00E091B400F091B50065
S1130D400995FF91EF91BF91AF919F918F917F9101
S1130D506F915F914F913F912F910F900FBE0F9024
S1130D601F9018950F931F93CF93DF9300D0CDB7A7
S1130D70DEB7FC01892B09F456C080818A3008F063
S1130D8054C08181882339F0883029F0803419F0E7
S1130D90883409F04CC08281882339F0803129F0ED
S1130DA0803219F0803309F044C08381882319F01C
S1130DB0803409F040C08481882311F08038E9F53B
S1130DC08F0185E0ABECB0E001900D928A95E1F7DC
S1130DD015BCF801208181819281822B892B85BDEC
S1130DE089B78F7789BF99B723818481822B892B17
S1130DF089BF8281882359F083E0898381E08A83D3
S1130E00BE016F5F7F4F86E390E00E941E04F801ED
S1130E108481803819F08381803489F48FB78068A5
S1130E208FBF80E00DC081E00BC081E009C081E08C
S1130E3007C081E005C081E003C081E001C080E01B
S1130E400F900F90DF91CF911F910F91089583BD63
S1130E5080E008951F920F920FB60F9211242F93E2
S1130E603F934F935F936F937F938F939F93AF932E
S1130E70BF93EF93FF93E091C300F091C4000995F1
S1130E80FF91EF91BF91AF919F918F917F916F915E
S1130E905F914F913F912F910F900FBE0F901F9034
S1130EA018951F920F920FB60F9211242F933F9310
S1130EB04F935F936F937F938F939F93AF93BF935E
S1130EC0EF93FF938091C7009091C800A091C9004F
S1130ED0B091CA000196A11DB11D8093C7009093E3
S1130EE0C800A093C900B093CA00E091C500F09176
S1130EF0C6000995FF91EF91BF91AF919F918F919A
S1130F007F916F915F914F913F912F910F900FBE01
S1130F100F901F901895CF93DF93EC0189E0FE01A9
S1130F20A6EDB0E001900D928A95E1F788818823BF
S1130F3021F0813021F4A8E003C0A0E101C0A2E0C7
S1130F402A813B814C815D81B0E00E94F0089B01C5
S1130F50AC0160E072E18AE790E00E94CE08215083
S1130F603109211580E1380758F529B92F3F31059A
S1130F7021F018F0832F8F7080BD8881823061F05A
S1130F80813029F48BB182608BB990E006C08BB1BB
S1130F908D7F8BB990E001C090E88885892B9F8173
S1130FA0982B8E81873029F4892F866094E09AB932
S1130FB001C0892B806880BD89818AB980E001C025
S1130FC081E0DF91CF9108958AB1877E8AB908952F
S1130FD09AB18091D700892B8AB90895611102C012
S1130FE05D9BFECF2091DC00273049F42AB12E7F8F
S1130FF02AB93AB1FC0121812170232B2AB9FC01C1
S113100080818CB90895611102C05F9BFECF5C9909
S113101019C05A9919C05B9919C0FC011182108238
S11310202091DC00273039F42AB1227030E0359564
S11310302795108221832CB130E0FC013183208379
S113104080E0089581E0089581E0089581E00895A5
S11310506115710529F19FB790689FBF803471F0C5
S1131060803819F08032F1F412C08AB180688AB9EC
S11310707093D5006093D40080E008958AB18064B1
S11310808AB97093D3006093D20080E008958AB146
S113109080628AB97093D1006093D00080E0089593
S11310A081E0089581E008951F920F920FB60F9288
S11310B011242F933F934F935F936F937F938F9359
S11310C09F93AF93BF93EF93FF93E091D400F0917C
S11310D0D5000995FF91EF91BF91AF919F918F91A9
S11310E07F916F915F914F913F912F910F900FBE20
S11310F00F901F9018951F920F920FB60F92112404
S11311002F933F934F935F936F937F938F939F930B
S1131110AF93BF93EF93FF93E091D000F091D10090
S11311200995FF91EF91BF91AF919F918F917F911D
S11311306F915F914F913F912F910F900FBE0F9040
S11311401F9018951F920F920FB60F9211242F9390
S11311503F934F935F936F937F938F939F93AF933B
S1131160BF93EF93FF93E091D200F091D3000995E0
S1131170FF91EF91BF91AF919F918F917F916F916B
S11311805F914F913F912F910F900FBE0F901F9041
S113119018950E9449000E944E00FDCFA1E21A2E2C
S11311A0AA1BBB1BFD010DC0AA1FBB1FEE1FFF1F07
S11311B0A217B307E407F50720F0A21BB30BE40B57
S11311C0F50B661F771F881F991F1A9469F760959E
S11311D07095809590959B01AC01BD01CF01089558
S11311E00E94FB08A59F900DB49F900DA49F800DB5
S11311F0911D11240895A29FB001B39FC001A39F24
S1131200700D811D1124911DB29F700D811D11243B
S10B1210911D0895F894FFCF2D
S1131218494E56414C4944204944210057656C6362
S11312286F6D652100506C6561736520656E74652A
S1131238722074686520332064696769747320496F
S1131248440050726F63657373696E672100E70029
S9030000FC
