S01D0000476174655F456E7472616E63655F4543555F5372632E7372656334
S11300000C942A000C9447000C9447000C9447006D
S11300100C9447000C9447000C9447000C94470040
S11300200C9447000C9447000C9447000C94470030
S11300300C9447000C9447000C9447000C94470020
S11300400C9447000C9447000C9447000C94470010
S11300500C94470011241FBECFE5D8E0DEBFCDBF0E
S113006010E0A0E6B0E0E0E6F5E002C005900D92F5
S1130070A638B107D9F720E0A6E8B0E001C01D9288
S1130080AC38B207E1F70E94A9020C94AE020C94BA
S113009000000E946C000895E0918800F0918900AE
S11300A00995089508950E949F0164E080E00E94EC
S11300B0750180E690E00E94490260E082E00E94BF
S11300C0750189E690E00E94490282E590E09093F0
S11300D089008093880008950E94190183E590E0C7
S11300E090938900809388000895CF93DF9300D084
S11300F0CDB7DEB719820BC01A8203C09A819F5F05
S11301009A839A819436D0F399819F5F99839981D8
S1130110981790F30F900F90DF91CF91089541E0DD
S113012061E089E390E00E948F0282E30E947500FF
S113013040E061E089E390E00E948F020895CF934C
S1130140C82F40E060E089E390E00E948F0240E025
S113015061E089E390E00E948F024C2F407150E0EF
S11301605595479555954795559547955595479573
S113017062E089E390E00E948F024C2F407250E0CD
S11301805595479555954795559547955595479553
S11301905595479563E089E390E00E948F024C2FC8
S11301A0407450E0042E452F000C441F550B000CE6
S11301B0441F551F64E089E390E00E948F024C2F96
S11301C0441F4427441F65E089E390E00E948F02A6
S11301D00E948F004C2F417062E089E390E00E94FE
S11301E08F024C2F427050E05595479563E089E3A8
S11301F090E00E948F024C2F447050E05595479533
S11302005595479564E089E390E00E948F02C87099
S11302104C2F50E0559547955595479555954795DD
S113022065E089E390E00E948F020E948F00CF91E5
S113023008951F93CF93DF9384E10E947500CAE869
S1130240D0E0188211E01983BE0189E390E00E9496
S1130250560218831983BE0189E390E00E94560276
S113026040E061E089E390E00E948F0240E060E0BA
S113027089E390E00E948F028FE00E94750082E083
S113028088831983BE0189E390E00E94560283E0CB
S113029088831983BE0189E390E00E94560284E0BA
S11302A088831983BE0189E390E00E94560285E0A9
S11302B088831983BE0189E390E00E94560285E099
S11302C00E94750082E00E949F0088E20E949F00C5
S11302D086E00E949F0080E80E949F008FE00E94B9
S11302E09F00DF91CF911F910895CF93DF936031E9
S11302F018F5843008F5D62FC82F813059F028F02E
S1130300823069F0833081F013C080E8860F0E9448
S11303109F000EC080EC860F0E949F0009C080E9F8
S1130320860F0E949F0004C080ED860F0E949F00EC
S1130330C0938600D0938700DF91CF91089581E028
S11303400E949F0010928700109286000895909159
S11303508700903168F080918600833048F41092D1
S113036087008F5F8093860060E00E947501089586
S1130370903168F080918600833049F40E949F0197
S113038080E80E949F0010928700109286000895D2
S1130390CF93C82F0E94A70141E060E089E390E079
S11303A00E948F0240E061E089E390E00E948F02A6
S11303B04C2F407150E05595479555954795559567
S11303C047955595479562E089E390E00E948F0236
S11303D04C2F407250E05595479555954795559546
S11303E04795559547955595479563E089E390E082
S11303F00E948F024C2F407450E0042E452F000CB5
S1130400441F550B000C441F551F64E089E390E022
S11304100E948F024C2F441F4427441F65E089E348
S113042090E00E948F020E948F004C2F417062E086
S113043089E390E00E948F024C2F427050E0559562
S1130440479563E089E390E00E948F024C2F44704B
S113045050E0559547955595479564E089E390E0BC
S11304600E948F02C8704C2F50E0559547955595C2
S113047047955595479565E089E390E00E948F0282
S11304800E948F00809187008F5F80938700CF91B7
S11304900895CF93DF93EC0103C021960E94C80115
S11304A088818111FACFDF91CF910895DC01FB019E
S11304B08181813079F411962C91119781E090E03B
S11304C0008002C0880F991F0A94E2F7822B1196CC
S11304D08C93089511968C91119721E030E000805F
S11304E002C0220F331F0A94E2F7209528231196A5
S11304F02C9311978181823089F480B78E7F80BFDD
S113050012962C91129781E090E0008002C0880F2F
S1130510991F0A94E2F7822B12968C930895FC019A
S1130520413059F4228181E090E002C0880F991F84
S11305306A95E2F7822B82830895928121E030E06C
S113054002C0220F331F6A95E2F7209529232283E4
S113055008950E9449000E944C00FDCFF894FFCFFB
S113056057656C636F6D652100506C656173652020
S1130570656E7465722074686520332064696769E8
S1090580747320494400DD
S9030000FC
