:100000000C942A000C9447000C9447000C94470071
:100010000C9432080C9459080C9447000C94470037
:100020000C9447000C9447000C9459070C948007DB
:100030000C943B060C945C090C9483090C94AA095B
:100040000C9447000C9447000C9447000C94470014
:100050000C94470011241FBECFE5D8E0DEBFCDBF12
:1000600010E0A0E6B0E0E8E2F4E102C005900D92F5
:10007000A03AB107D9F720E0A0EAB0E001C01D9294
:10008000A93EB207E1F70E94D1090C94120A0C9420
:10009000000081E590E09093E2008093E1000895F4
:1000A000089561E083E390E00E94BF0462E083E38F
:1000B00090E00E94C6028091A10081110AC00E94B6
:1000C000F30363E081E00E94C90380E690E00E94B0
:1000D0009D048091A100833070F449E450E06DE408
:1000E00071E080E090E00E9419078091A1008F5F8D
:1000F0008093A10004C01092A1000E94AD0280E58F
:1001000090E09093E2008093E10008958091A00038
:10011000811111C00E94F30364E081E00E94C903D1
:1001200082E690E00E949D048091A0008F5F809302
:10013000A00041E003C01092A00040E060E083E333
:1001400090E00E94BC0480E590E09093E2008093F0
:10015000E100089560E083E390E00E94AA0461E07A
:1001600083E390E00E94AA0462E083E390E00E94AF
:10017000B40280E590E09093E2008093E10008955E
:1001800081E590E09093E2008093E100089586E895
:1001900090E09093E2008093E100089586E890E07B
:1001A0009093E2008093E10008950E9494020E94DF
:1001B0002F010E94AA000895E091E300F091E4006D
:1001C0000995E091E500F091E6000995E091E100E4
:1001D000F091E2000995089586E091E09093E600A1
:1001E0008093E500089508958AEF0E9409054CEE7A
:1001F00050E064EF71E080E090E00E94190783EF27
:1002000090E09093E6008093E500089562E086E335
:1002100090E00E94D304813039F483E291E090931E
:10022000E6008093E50008954CEE50E064EF71E045
:1002300080E090E00E94190783EF90E09093E60041
:100240008093E500089580EF0E9409050E94A402B2
:1002500083EF90E09093E6008093E50008950E947C
:10026000DB0462E086E390E00E94C20483EF90E04A
:100270009093E6008093E500089584EF90E09093DA
:10028000E6008093E50008958BEF91E09093E40001
:100290008093E30008950895CF93DF93CDB7DEB741
:1002A00029970FB6F894DEBF0FBECDBF198280E844
:1002B00095E2A0E0B0E08B839C83AD83BE8388E1B0
:1002C0008A8386E08F8319861886CE0101960E9464
:1002D000930869E771E080E80E9430090E94EC0809
:1002E00029960FB6F894DEBF0FBECDBFDF91CF9138
:1002F00008958091A30090E061E08B559F4F0E948C
:100300000B098091A30090E061E08B559F4F0E9404
:10031000F608E091A300EF5FE093A300E33071F4EF
:10032000F0E0EB55FF4F10821092A3000E94EC0802
:1003300088E192E09093E4008093E3000895CF93E6
:10034000DF93CDB7DEB72B970FB6F894DEBF0FBEA5
:10035000CDBF198280E28A8388E08B8384E08C831E
:1003600080E88F8387E892E099878887CE0101969D
:100370000E94000681E08B8783E08A87BE01665F6A
:100380007F4F86E390E00E940D052B960FB6F89400
:10039000DEBF0FBECDBFDF91CF9108958091A20047
:1003A000811106C061E08EE990E00E942B0606C034
:1003B00090E061E08C559F4F0E942B068091A20037
:1003C0008F5F8093A2008430A9F40E94D50610921A
:1003D000A20082E08093A90044E451E068EE73E05B
:1003E00080E090E00E9419078BE491E09093E40094
:1003F0008093E30008951092A9000E94F30364E043
:1004000080E00E94C9038CE690E00E949D0460E0B9
:1004100082E00E94C90385E790E00E949D040E944B
:10042000F0088BE491E09093E4008093E30008955A
:100430000E94F30364E081E00E94C90382E990E036
:100440000E949D0481E08093A90044E451E068EE9D
:1004500073E080E090E00E94190763E086E390E09B
:100460000E9479058BE491E09093E4008093E3008F
:1004700008950E94C7000E943D018BE491E0909393
:10048000E4008093E30008950E94C0008BE491E0B3
:100490009093E4008093E3000895CF93DF931F923D
:1004A000CDB7DEB78EE7898360E0CE0101960E946A
:1004B00033068091A4008823D9F00E94D5061092BB
:1004C000A40089818F3F39F489E392E09093E4009E
:1004D0008093E30006C084E492E09093E40080936C
:1004E000E300198261E0CE0101960E942B060BC049
:1004F00089818E3741F460E0CE0101960E942B067F
:1005000081E08093A4000F90DF91CF9108958091B6
:10051000A900813019F0823021F008950E94CE01A7
:1005200008950E944D0208950E944C010E949F016F
:100530000E946D038CE00E94F3028BEF91E0909398
:10054000E4008093E30008950E94CE008BEF91E0D9
:100550009093E4008093E30008958BEF91E09093F3
:10056000E4008093E3000895CF93DF9300D0CDB7EC
:10057000DEB721E02A836983BE016F5F7F4F0E944F
:100580000D050F900F90DF91CF9108950E9479058E
:100590000895CF93DF9300D0CDB7DEB719820BC09B
:1005A0001A8203C09A819F5F9A839A819436D0F30E
:1005B00099819F5F99839981981790F30F900F907D
:1005C000DF91CF91089541E061E089E390E00E94DE
:1005D0005F0582E30E94C90240E061E089E390E0A8
:1005E0000E945F050895CF93C82F40E060E089E343
:1005F00090E00E945F0540E061E089E390E00E94A6
:100600005F054C2F407150E055954795559547959E
:10061000559547955595479562E089E390E00E948E
:100620005F054C2F407250E055954795559547957D
:1006300055954795559547955595479563E089E3B9
:1006400090E00E945F054C2F407450E0042E452F2F
:10065000000C441F550B000C441F551F64E089E338
:1006600090E00E945F054C2F441F4427441F65E023
:1006700089E390E00E945F050E94E3024C2F4170E5
:1006800062E089E390E00E945F054C2F427050E0E9
:100690005595479563E089E390E00E945F054C2FF4
:1006A000447050E0559547955595479564E089E32A
:1006B00090E00E945F05C8704C2F50E0559547951B
:1006C000559547955595479565E089E390E00E94DB
:1006D0005F050E94E302CF9108951F93CF93DF93AC
:1006E00084E10E94C902C7EED0E0188211E01983AC
:1006F000BE0189E390E00E940D0518831983BE01B5
:1007000089E390E00E940D0540E061E089E390E01C
:100710000E945F0540E060E089E390E00E945F0591
:100720008FE00E94C90282E088831983BE0189E3B9
:1007300090E00E940D0583E088831983BE0189E360
:1007400090E00E940D0584E088831983BE0189E34F
:1007500090E00E940D0585E088831983BE0189E33E
:1007600090E00E940D0585E00E94C90282E00E948F
:10077000F30288E20E94F30286E00E94F30280E81E
:100780000E94F3028FE00E94F302DF91CF911F914C
:100790000895CF93DF93603118F5843008F5D62F94
:1007A000C82F813059F028F0823069F0833081F011
:1007B00013C080E8860F0E94F3020EC080EC860F03
:1007C0000E94F30209C080E9860F0E94F30204C070
:1007D00080ED860F0E94F302C093AA00D093AB0075
:1007E000DF91CF91089581E00E94F3021092AB0057
:1007F0001092AA0008959091AB00903168F080911A
:10080000AA00833048F41092AB008F5F8093AA0057
:1008100060E00E94C9030895903168F08091AA00B9
:10082000833049F40E94F30380E80E94F30210929F
:10083000AB001092AA000895CF93C82F0E94FB032B
:1008400041E060E089E390E00E945F0540E061E004
:1008500089E390E00E945F054C2F407150E0559570
:10086000479555954795559547955595479562E018
:1008700089E390E00E945F054C2F407250E055954F
:100880004795559547955595479555954795559550
:10089000479563E089E390E00E945F054C2F407428
:1008A00050E0042E452F000C441F550B000C441F34
:1008B000551F64E089E390E00E945F054C2F441FC0
:1008C0004427441F65E089E390E00E945F050E9491
:1008D000E3024C2F417062E089E390E00E945F05E3
:1008E0004C2F427050E05595479563E089E390E0C6
:1008F0000E945F054C2F447050E0559547955595E3
:10090000479564E089E390E00E945F05C8704C2F32
:1009100050E055954795559547955595479565E010
:1009200089E390E00E945F050E94E3028091AB00A2
:100930008F5F8093AB00CF910895CF93DF93EC014D
:1009400003C021960E941C0488818111FACFDF9197
:10095000CF910895CF93DF9300D0CDB7DEB721E0DC
:100960002A836983BE016F5F7F4F0E940D050F9040
:100970000F90DF91CF9108950E945F0508950E9426
:1009800079050895CF93DF9300D0CDB7DEB71A82F3
:100990006983BE016F5F7F4F0E940D050F900F901E
:1009A000DF91CF9108950E94460591E0813009F4CE
:1009B00090E0892F08951F93CF93DF93CDB7DEB7D3
:1009C00027970FB6F894DEBF0FBECDBF17E01E838A
:1009D00081E08F83BE016A5F7F4F80E390E00E94D9
:1009E0000D05198388E48A8380E38B831D821C8232
:1009F00080EF0E942F08CE0101960E94BA07279629
:100A00000FB6F894DEBF0FBECDBFDF91CF911F911F
:100A100008950E942F0880E00895DC01FB01818188
:100A2000813079F411962C91119781E090E000804B
:100A300002C0880F991F0A94E2F7822B11968C93BB
:100A4000089511968C91119721E030E0008002C04A
:100A5000220F331F0A94E2F72095282311962C9336
:100A600011978181823089F480B78E7F80BF129682
:100A70002C91129781E090E0008002C0880F991FAE
:100A80000A94E2F7822B12968C930895FC01408120
:100A900021E030E0C901062E02C0880F991F0A9498
:100AA000E2F7242F30E02823392302C0359527951B
:100AB0006A95E2F781E0232B09F480E00895FC01B8
:100AC000413059F4228181E090E002C0880F991FE3
:100AD0006A95E2F7822B82830895928121E030E0CB
:100AE00002C0220F331F6A95E2F720952923228343
:100AF0000895FC01428121E030E002C0220F331F43
:100B00006A95E2F72427228308950F931F93CF93CA
:100B1000DF9300D0CDB7DEB78031C9F585E089839A
:100B200011E01A83BE016F5F7F4F86E390E00E9461
:100B30000D0507E009831A83BE016F5F7F4F86E3CF
:100B400090E00E940D0584E089831A83BE016F5FE7
:100B50007F4F86E390E00E940D0509831A83BE0152
:100B60006F5F7F4F86E390E00E940D0586E08983EA
:100B70001A82BE016F5F7F4F86E390E00E940D05F1
:100B800041E064E086E390E00E945F0532C085E0CA
:100B9000898311E01A83BE016F5F7F4F86E390E087
:100BA0000E940D0507E009831A82BE016F5F7F4F27
:100BB00086E390E00E940D0584E089831A82BE01DD
:100BC0006F5F7F4F86E390E00E940D0509831A82D4
:100BD000BE016F5F7F4F86E390E00E940D0586E0C7
:100BE00089831A83BE016F5F7F4F86E390E00E9486
:100BF0000D050F900F90DF91CF911F910F910895E8
:100C0000FC011DB89DB16081818154814281338195
:100C10002681862B852B842B832B822B892B8DB9C8
:100C20008EB190E08E7F2581822B9EB1892B8EB96B
:100C30008681803849F48FB780688FBF878190851F
:100C40009093AD008093AC0080810E9485058DB1AA
:100C500080648DB90895FC0180818FB9611102C053
:100C6000779BFECF0895611102C0779BFECF2FB115
:100C7000FC01208308951F920F920FB60F9211244A
:100C80002F933F934F935F936F937F938F939F9394
:100C9000AF93BF93EF93FF93E091AC00F091AD0061
:100CA0000995FF91EF91BF91AF919F918F917F91A6
:100CB0006F915F914F913F912F910F900FBE0F90C9
:100CC0001F9018950F931F93CF93DF9300D0CDB74C
:100CD000DEB7FC01892B09F454C08081883008F00C
:100CE00052C08181882339F0883029F0803419F08E
:100CF000883409F04AC08281882339F0803129F094
:100D0000803219F0803309F042C08381823008F0CC
:100D100040C08481882311F08230E9F58F0185E09D
:100D2000A0ECB0E001900D928A95E1F713BEF801B6
:100D3000208181819281822B892B83BF89B78C7F0F
:100D400089BF99B723818481822B892B89BF8281B6
:100D5000882359F083E0898381E08A83BE016F5F35
:100D60007F4F86E390E00E940D05F8018481823078
:100D700019F08381813089F48FB780688FBF80E05C
:100D80000DC081E00BC081E009C081E007C081E0B7
:100D900005C081E003C081E001C080E00F900F90AA
:100DA000DF91CF911F910F91089583B7887F83BF03
:100DB00080E008958091AE009091AF00A091B000C6
:100DC000B091B1004091B8005091B9006091BA0063
:100DD0007091BB0084179507A607B70778F40196B2
:100DE000A11DB11D8093AE009093AF00A093B00001
:100DF000B093B10088B7826088BF08951092AE00AA
:100E00001092AF001092B0001092B1000E94D5066F
:100E1000E091B200F091B300099508958CBF80E095
:100E2000089582BF80E008959093B5008093B40048
:100E30000895CF92DF92EF92FF920F931F93CF937B
:100E4000DF9300D000D01F92CDB7DEB76B017C01DD
:100E50008A0183E0898388E08A831B8282E08D8314
:100E60001C828CE70E940E0780E00E9411078AED29
:100E700096E00E941407C092B800D092B900E092A8
:100E8000BA00F092BB001093B3000093B200CE0101
:100E900001960E9462060F900F900F900F900F9096
:100EA000DF91CF911F910F91FF90EF90DF90CF9046
:100EB00008951F920F920FB60F9211242F933F9314
:100EC0004F935F936F937F938F939F93AF93BF9352
:100ED000EF93FF93E091B400F091B5000995FF9175
:100EE000EF91BF91AF919F918F917F916F915F91A2
:100EF0004F913F912F910F900FBE0F901F9018951B
:100F00001F920F920FB60F9211242F933F934F937E
:100F10005F936F937F938F939F93AF93BF93EF9361
:100F2000FF938091BC009091BD00A091BE00B09154
:100F3000BF000196A11DB11D8093BC009093BD0020
:100F4000A093BE00B093BF00E091B600F091B7004F
:100F50000995FF91EF91BF91AF919F918F917F91F3
:100F60006F915F914F913F912F910F900FBE0F9016
:100F70001F9018950F931F93CF93DF9300D0CDB799
:100F8000DEB7FC01892B09F456C080818A3008F055
:100F900054C08181882339F0883029F0803419F0D9
:100FA000883409F04CC08281882339F0803129F0DF
:100FB000803219F0803309F044C08381882319F00E
:100FC000803409F040C08481882311F08038E9F52D
:100FD0008F0185E0ADECB0E001900D928A95E1F7CC
:100FE00015BCF801208181819281822B892B85BDDE
:100FF00089B78F7789BF99B723818481822B892B09
:1010000089BF8281882359F083E0898381E08A83C4
:10101000BE016F5F7F4F86E390E00E940D05F801EF
:101020008481803819F08381803489F48FB7806897
:101030008FBF80E00DC081E00BC081E009C081E07E
:1010400007C081E005C081E003C081E001C080E00D
:101050000F900F90DF91CF911F910F91089583BD55
:1010600080E008951F920F920FB60F9211242F93D4
:101070003F934F935F936F937F938F939F93AF9320
:10108000BF93EF93FF93E091C500F091C6000995DF
:10109000FF91EF91BF91AF919F918F917F916F9150
:1010A0005F914F913F912F910F900FBE0F901F9026
:1010B00018951F920F920FB60F9211242F933F9302
:1010C0004F935F936F937F938F939F93AF93BF9350
:1010D000EF93FF938091C9009091CA00A091CB003B
:1010E000B091CC000196A11DB11D8093C9009093D1
:1010F000CA00A093CB00B093CC00E091C700F09160
:10110000C8000995FF91EF91BF91AF919F918F9189
:101110007F916F915F914F913F912F910F900FBEF3
:101120000F901F901895CF93DF93EC0189E0FE019B
:10113000A8EDB0E001900D928A95E1F788818823AF
:1011400021F0813021F4A8E003C0A0E101C0A2E0B9
:101150002A813B814C815D81B0E00E94F8099B01AE
:10116000AC0160E072E18AE790E00E94D60921506C
:101170003109211580E1380758F529B92F3F31058C
:1011800021F018F0832F8F7080BD8881823061F04C
:10119000813029F48BB182608BB990E006C08BB1AD
:1011A0008D7F8BB990E001C090E88885892B9F8165
:1011B000982B8E81873029F4892F866094E09AB924
:1011C00001C0892B806880BD89818AB980E001C017
:1011D00081E0DF91CF9108958AB1877E8AB9089521
:1011E0009AB18091D900892B8AB90895611102C002
:1011F0005D9BFECF2091DE00273049F42AB12E7F7F
:101200002AB93AB1FC0121812170232B2AB9FC01B2
:1012100080818CB90895611102C05F9BFECF5C99FB
:1012200019C05A9919C05B9919C0FC01118210822A
:101230002091DE00273039F42AB1227030E0359554
:101240002795108221832CB130E0FC01318320836B
:1012500080E0089581E0089581E0089581E0089597
:101260006115710529F19FB790689FBF803471F0B7
:10127000803819F08032F1F412C08AB180688AB9DE
:101280007093D7006093D60080E008958AB180649F
:101290008AB97093D5006093D40080E008958AB134
:1012A00080628AB97093D3006093D20080E0089581
:1012B00081E0089581E008951F920F920FB60F927A
:1012C00011242F933F934F935F936F937F938F934B
:1012D0009F93AF93BF93EF93FF93E091D600F0916C
:1012E000D7000995FF91EF91BF91AF919F918F9199
:1012F0007F916F915F914F913F912F910F900FBE12
:101300000F901F9018951F920F920FB60F921124F5
:101310002F933F934F935F936F937F938F939F93FD
:10132000AF93BF93EF93FF93E091D200F091D3007E
:101330000995FF91EF91BF91AF919F918F917F910F
:101340006F915F914F913F912F910F900FBE0F9032
:101350001F9018951F920F920FB60F9211242F9382
:101360003F934F935F936F937F938F939F93AF932D
:10137000BF93EF93FF93E091D400F091D5000995CE
:10138000FF91EF91BF91AF919F918F917F916F915D
:101390005F914F913F912F910F900FBE0F901F9033
:1013A00018950E94D5000E94DC00FDCFA1E21A2E04
:1013B000AA1BBB1BFD010DC0AA1FBB1FEE1FFF1FF9
:1013C000A217B307E407F50720F0A21BB30BE40B49
:1013D000F50B661F771F881F991F1A9469F7609590
:1013E0007095809590959B01AC01BD01CF0108954A
:1013F0000E94030AA59F900DB49F900DA49F800D9D
:10140000911D11240895A29FB001B39FC001A39F15
:10141000700D811D1124911DB29F700D811D11242D
:08142000911D0895F894FFCF1F
:10142800494E56414C4944204944210057656C6354
:101438006F6D652100506C6561736520656E74651C
:101448007220746865203320646967697473204961
:10145800440050726F63657373696E6721007E0084
:00000001FF
